:020000040800F2
:100000000050002091210008D9190008DB190008D0
:10001000DD190008DF190008E119000800000000E0
:10002000000000000000000000000000E3190008CC
:10003000E519000800000000E7190008E9190008A8
:10004000D9210008D9210008D9210008D9210008A8
:10005000D9210008D9210008D9210008D921000898
:10006000D9210008D9210008F1190008D921000878
:10007000D9210008D9210008D9210008D921000878
:10008000D9210008D9210008D9210008D921000868
:10009000D9210008D9210008D92100082D1A00080B
:1000A000D9210008691A0008D9210008D9210008BF
:1000B0009D1A0008D9210008D9210008D92100087B
:1000C000D9210008D9210008D9210008D921000828
:1000D000D9210008C51A0008D9210008D921000833
:1000E000D51A0008D9210008D92100080000000015
:1000F0000000000000000000000000000000000000
:0C01000000000000000000005FF808F1A3
:1001100081F0004102E000BF83F0004330B54FEAB8
:1001200041044FEA430594EA050F08BF90EA020F25
:100130001FBF54EA000C55EA020C7FEA645C7FEAB8
:10014000655C00F0E2804FEA5454D4EB5555B8BFDB
:100150006D420CDD2C4480EA020281EA030382EA4C
:10016000000083EA010180EA020281EA0303362DDE
:1001700088BF30BD11F0004F4FEA01314FF4801CB1
:100180004CEA113102D0404261EB410113F0004FC3
:100190004FEA03334CEA133302D0524263EB43037A
:1001A00094EA050F00F0A780A4F10104D5F1200E18
:1001B0000DDB02FA0EFC22FA05F2801841F1000173
:1001C00003FA0EF2801843FA05F359410EE0A5F147
:1001D00020050EF1200E012A03FA0EFC28BF4CF078
:1001E000020C43FA05F3C01851EBE37101F000452E
:1001F00007D54FF0000EDCF1000C7EEB00006EEB3B
:100200000101B1F5801F1BD3B1F5001F0CD34908C4
:100210005FEA30004FEA3C0C04F101044FEA44521B
:1002200012F5800F80F09A80BCF1004F08BF5FEAA2
:10023000500C50F1000041EB045141EA050130BD82
:100240005FEA4C0C404141EB0101013C28BFB1F594
:10025000801FE9D291F0000F04BF01460020B1FADF
:1002600081F308BF2033A3F10B03B3F120020CDAB2
:100270000C3208DD02F1140CC2F10C0201FA0CF090
:1002800021FA02F10CE002F11402D8BFC2F1200CF5
:1002900001FA02F120FA0CFCDCBF41EA0C019040AB
:1002A000E41AA2BF01EB0451294330BD6FEA0404F4
:1002B0001F3C1CDA0C340EDC04F11404C4F12002DF
:1002C00020FA04F001FA02F340EA030021FA04F3F1
:1002D00045EA030130BDC4F10C04C4F1200220FA48
:1002E00002F001FA04F340EA0300294630BD21FA86
:1002F00004F0294630BD94F0000F83F4801306BF4C
:1003000081F480110134013D4EE77FEA645C18BF3F
:100310007FEA655C29D094EA050F08BF90EA020FD6
:1003200005D054EA000C04BF1946104630BD91EACE
:10033000030F1EBF0021002030BD5FEA545C05D1D1
:100340004000494128BF41F0004130BD14F5800410
:100350003CBF01F5801130BD01F0004545F0FE4184
:1003600041F470014FF0000030BD7FEA645C1ABFB9
:10037000194610467FEA655C1CBF0B46024650EAF0
:10038000013406BF52EA033591EA030F41F400211C
:1003900030BD00BF90F0000F04BF0021704730B5A2
:1003A0004FF4806404F132044FF000054FF0000177
:1003B00050E700BF90F0000F04BF0021704730B538
:1003C0004FF4806404F1320410F0004548BF40420D
:1003D0004FF000013EE700BF42004FEAE2014FEA62
:1003E00031014FEA02701FBF12F07F4393F07F4F3D
:1003F00081F06051704732F07F4208BF704793F040
:100400007F4F04BF41F40021704730B54FF4607452
:1004100001F0004521F000411CE700BF50EA010255
:1004200008BF704730B54FF000050AE050EA0102FE
:1004300008BF704730B511F0004502D5404261EB6E
:1004400041014FF4806404F132045FEA915C3FF4AF
:10045000D8AE4FF003025FEADC0C18BF03325FEA4C
:10046000DC0C18BF033202EBDC02C2F1200300FAFD
:1004700003FC20FA02F001FA03FE40EA0E0021FA22
:1004800002F11444BDE600BF4FEA4102B2F1E0437D
:1004900024BFB3F5001CDCF1FE5C0DD901F0004C6B
:1004A0004FEAC0024CEA5070B2F1004F40EB8300BB
:1004B00008BF20F00100704711F0804F21D113F1E7
:1004C0003872BCBF01F00040704741F480114FEA20
:1004D0005252C2F11802C2F1200C10FA0CF320FAA9
:1004E00002F018BF40F001004FEAC1234FEAD323C6
:1004F00003FA0CFC40EA0C0023FA02F34FEA430330
:10050000CCE77FEA625307D150EA01331EBF4FF0B8
:10051000FE4040F44000704701F0004040F0FE40D3
:1005200040F40000704700BF80F0004002E000BFD0
:1005300081F0004142001FBF5FEA410392EA030FCE
:100540007FEA226C7FEA236C6AD04FEA1262D2EB18
:100550001363C1BFD218414048404140B8BF5B421D
:10056000192B88BF704710F0004F40F4000020F0B6
:100570007F4018BF404211F0004F41F4000121F0CC
:100580007F4118BF494292EA030F3FD0A2F1010216
:1005900041FA03FC10EB0C00C3F1200301FA03F154
:1005A00000F0004302D5494260EB4000B0F5000F77
:1005B00013D3B0F1807F06D340084FEA310102F136
:1005C0000102FE2A51D2B1F1004F40EBC25008BFE8
:1005D00020F0010040EA03007047490040EB0000B2
:1005E000013A28BFB0F5000FEDD2B0FA80FCACF1B3
:1005F000080CB2EB0C0200FA0CF0AABF00EBC250E0
:1006000052421843BCBFD0401843704792F0000FCD
:1006100081F4000106BF80F400000132013BB5E720
:100620004FEA41037FEA226C18BF7FEA236C21D096
:1006300092EA030F04D092F0000F08BF08467047FB
:1006400090EA010F1CBF0020704712F07F4F04D1C9
:10065000400028BF40F00040704712F100723CBFDC
:1006600000F50000704700F0004343F0FE4040F406
:10067000000070477FEA226216BF08467FEA2363C4
:100680000146420206BF5FEA412390EA010F40F4AF
:10069000800070474FF0000304E000BF10F00043FB
:1006A00048BF40425FEA000C08BF704743F09643E2
:1006B00001464FF000001CE050EA010208BF7047FD
:1006C0004FF000030AE000BF50EA010208BF704784
:1006D00011F0004302D5404261EB41015FEA010C99
:1006E00002BF84460146002043F0B64308BFA3F191
:1006F0008053A3F50003BCFA8CF2083AA3EBC25373
:1007000010DB01FA02FC634400FA02FCC2F1200291
:10071000BCF1004F20FA02F243EB020008BF20F0C8
:100720000100704702F1200201FA02FCC2F120022E
:1007300050EA4C0021FA02F243EB020008BF20EA23
:10074000DC7070474FF0FF0C1CEAD0521EBF1CEA51
:10075000D15392EA0C0F93EA0C0F6FD01A4480EA3F
:10076000010C400218BF5FEA41211ED04FF0006328
:1007700043EA501043EA5111A0FB01310CF0004054
:10078000B1F5000F3EBF490041EAD3715B0040EA7A
:10079000010062F17F02FD2A1DD8B3F1004F40EB4A
:1007A000C25008BF20F00100704790F0000F0CF01D
:1007B000004C08BF49024CEA502040EA51207F3AE1
:1007C000C2BFD2F1FF0340EAC250704740F40000BC
:1007D0004FF00003013A5DDC12F1190FDCBF00F0AD
:1007E00000407047C2F10002410021FA02F1C2F15B
:1007F000200200FA02FC5FEA310040F1000053EAF7
:100800004C0308BF20EADC70704792F0000F00F044
:10081000004C02BF400010F4000F013AF9D040EA4A
:100820000C0093F0000F01F0004C02BF490011F4DE
:10083000000F013BF9D041EA0C018FE70CEAD153DC
:1008400092EA0C0F18BF93EA0C0F0AD030F0004C5C
:1008500018BF31F0004CD8D180EA010000F0004010
:10086000704790F0000F17BF90F0004F084691F0CE
:10087000000F91F0004F14D092EA0C0F01D1420208
:100880000FD193EA0C0F03D14B0218BF084608D1D1
:1008900080EA010000F0004040F0FE4040F400001B
:1008A000704740F0FE4040F4400070474FF0FF0CAE
:1008B0001CEAD0521EBF1CEAD15392EA0C0F93EAF5
:1008C0000C0F69D0A2EB030280EA010C49024FEA47
:1008D000402037D04FF0805343EA111143EA101300
:1008E0000CF000408B4238BF5B0042F17D024FF4B8
:1008F000000C8B4224BF5B1A40EA0C00B3EB510F93
:1009000024BFA3EB510340EA5C00B3EB910F24BF7B
:10091000A3EB910340EA9C00B3EBD10F24BFA3EB00
:10092000D10340EADC001B0118BF5FEA1C1CE0D1C8
:10093000FD2A3FF650AF8B4240EBC25008BF20F07B
:10094000010070470CF0004C4CEA50207F32C2BFCF
:10095000D2F1FF0340EAC250704740F400004FF06C
:100960000003013A37E792F0000F00F0004C02BF9D
:10097000400010F4000F013AF9D040EA0C0093F067
:10098000000F01F0004C02BF490011F4000F013BC1
:10099000F9D041EA0C0195E70CEAD15392EA0C0F29
:1009A00008D142027FF47DAF93EA0C0F7FF470AF61
:1009B000084676E793EA0C0F04D14B023FF44CAFA4
:1009C00008466EE730F0004C18BF31F0004CCAD139
:1009D00030F000427FF45CAF31F000437FF43CAF75
:1009E0005FE700BF4FEA4002B2F1FE4F0FD34FF076
:1009F0009E03B3EB12620DD94FEA002343F000438C
:100A000010F0004F23FA02F018BF404270474FF039
:100A10000000704712F1610F01D1420205D110F0C0
:100A2000004008BF6FF0004070474FF00000704773
:100A300042000ED2B2F1FE4F0BD34FF09E03B3EB48
:100A4000126209D44FEA002343F0004323FA02F074
:100A500070474FF00000704712F1610F01D1420260
:100A600002D14FF0FF3070474FF00000704700BFD9
:100A7000844641EA000313F0030349D1403A23D3EB
:100A80000B6803604B6843608B688360CB68C3600E
:100A90000B6903614B6943618B698361CB69C361F6
:100AA0000B6A03624B6A43628B6A8362CB6AC362DE
:100AB0000B6B03634B6B43638B6B8363CB6BC363C6
:100AC00040304031403ADBD230320BD30B68036008
:100AD0004B6843608B688360CB68C3601030103113
:100AE000103AF3D20C3205D351F8043B40F8043BE2
:100AF000043AF9D2043208D0D2071CBF11F8013BE6
:100B000000F8013B01D30B8803806046704700BFAB
:100B1000082A13D38B07B1D010F00303AED0C3F172
:100B20000403D21ADB071CBF11F8013B00F8013B9C
:100B3000A4D331F8023B20F8023B9FE7043AD9D313
:100B4000013A11F8013B00F8013BF9D20B78037030
:100B50004B7843708B7883706046704770B54FF068
:100B6000FF0C4CF4E06C1CEA11541DBF1CEA135539
:100B700094EA0C0F95EA0C0F00F0DEF82C4481EAA1
:100B8000030621EA4C5123EA4C5350EA013518BFC1
:100B900052EA033541F4801143F4801338D0A0FBAE
:100BA00002CE4FF00005E1FB02E506F00042E0FB5B
:100BB00003E54FF00006E1FB03569CF0000F18BF61
:100BC0004EF0010EA4F1FF04B6F5007F64F5407409
:100BD00004D25FEA4E0E6D4146EB060642EAC6219C
:100BE00041EA55514FEAC52040EA5E504FEACE2E09
:100BF000B4F1FD0C88BFBCF5E06F1ED8BEF1004F0C
:100C000008BF5FEA500E50F1000041EB045170BD87
:100C100006F0004646EA010140EA020081EA0301CB
:100C2000B4EB5C04C2BFD4EB0C0541EA045170BDC7
:100C300041F480114FF0000E013C00F3AB8014F141
:100C4000360FDEBF002001F0004170BDC4F100048A
:100C5000203C35DA0C341BDC04F11404C4F120050B
:100C600000FA05F320FA04F001FA05F240EA020066
:100C700001F0004221F0004110EBD37021FA04F69C
:100C800042EB06015EEA430E08BF20EAD37070BD56
:100C9000C4F10C04C4F1200500FA04F320FA05F0B5
:100CA00001FA04F240EA020001F0004110EBD370B7
:100CB00041F100015EEA430E08BF20EAD37070BD27
:100CC000C4F1200500FA05F24EEA020E20FA04F300
:100CD00001FA05F243EA020321FA04F001F00041AF
:100CE00021FA04F220EA020000EBD3705EEA430E20
:100CF00008BF20EAD37070BD94F0000F0FD101F04F
:100D00000046400041EB010111F4801F08BF013C87
:100D1000F7D041EA060195F0000F18BF704703F0C5
:100D20000046520043EB030313F4801F08BF013D4C
:100D3000F7D043EA0603704794EA0C0F0CEA135508
:100D400018BF95EA0C0F0CD050EA410618BF52EAC2
:100D50004306D1D181EA030101F000414FF00000C8
:100D600070BD50EA410606BF1046194652EA4306D6
:100D700019D094EA0C0F02D150EA013613D195EA4A
:100D80000C0F05D152EA03361CBF104619460AD192
:100D900081EA030101F0004141F0FE4141F470019C
:100DA0004FF0000070BD41F0FE4141F4780170BD8C
:100DB00070B54FF0FF0C4CF4E06C1CEA11541DBFF1
:100DC0001CEA135594EA0C0F95EA0C0F00F0A7F8F3
:100DD000A4EB050481EA030E52EA03354FEA013120
:100DE00000F088804FEA03334FF0805545EA131333
:100DF00043EA12634FEA022245EA111545EA1065FB
:100E00004FEA00260EF000419D4208BF964244F191
:100E1000FD0404F5407402D25B084FEA3202B61AB0
:100E200065EB03055B084FEA32024FF480104FF484
:100E3000002CB6EB020E75EB030E22BFB61A7546F8
:100E400040EA0C005B084FEA3202B6EB020E75EB8B
:100E5000030E22BFB61A754640EA5C005B084FEAF3
:100E60003202B6EB020E75EB030E22BFB61A7546C0
:100E700040EA9C005B084FEA3202B6EB020E75EBCB
:100E8000030E22BFB61A754640EADC0055EA060E8C
:100E900018D04FEA051545EA16754FEA06164FEACF
:100EA000C30343EA52734FEAC2025FEA1C1CC0D17B
:100EB00011F4801F0BD141EA00014FF000004FF008
:100EC000004CB6E711F4801F04BF01430020B4F1C9
:100ED000FD0C88BFBCF5E06F3FF6AFAEB5EB030C81
:100EE00004BFB6EB020C5FEA500C50F1000041EB7E
:100EF000045170BD0EF0004E4EEA113114EB5C044B
:100F0000C2BFD4EB0C0541EA045170BD41F480111D
:100F10004FF0000E013C90E645EA060E8DE60CEA25
:100F2000135594EA0C0F08BF95EA0C0F3FF43BAF42
:100F300094EA0C0F0AD150EA01347FF434AF95EAF9
:100F40000C0F7FF425AF104619462CE795EA0C0FDD
:100F500006D152EA03353FF4FDAE1046194622E7AA
:100F600050EA410618BF52EA43067FF4C5AE50EA84
:100F700041047FF40DAF52EA43057FF4EBAE12E774
:100F80004FF0FF3C06E000BF4FF0010C02E000BF55
:100F90004FF0010C4DF804CD4FEA410C7FEA6C5C38
:100FA0004FEA430C18BF7FEA6C5C1BD001B050EADB
:100FB000410C0CBF52EA430C91EA030F02BF90EAC6
:100FC000020F0020704710F1000F91EA030F58BF85
:100FD000994208BF90422CBFD8176FEAE37040F0E7
:100FE000010070474FEA410C7FEA6C5C02D150EA85
:100FF000013C07D14FEA430C7FEA6C5CD6D152EA40
:10100000033CD3D05DF8040B704700BF8446104604
:1010100062468C461946634600E000BF01B5FFF703
:10102000B7FF002848BF10F1000F01BD4DF808EDD3
:10103000FFF7F4FF0CBF012000205DF808FB00BFA4
:101040004DF808EDFFF7EAFF34BF012000205DF8FE
:1010500008FB00BF4DF808EDFFF7E0FF94BF01204B
:1010600000205DF808FB00BF4DF808EDFFF7CEFF4C
:1010700094BF012000205DF808FB00BF4DF808ED8B
:10108000FFF7C4FF34BF012000205DF808FB00BF5C
:101090004FEA410C7FEA6C5C02D150EA013C0AD174
:1010A0004FEA430C7FEA6C5C02D152EA033C02D166
:1010B0004FF0000070474FF0010070474FEA4102C7
:1010C00012F5001215D211D56FF47873B3EB62529A
:1010D00012D94FEAC12343F0004343EA505311F0C1
:1010E000004F23FA02F018BF404270474FF0000053
:1010F000704750EA013005D111F0004008BF6FF091
:10110000004070474FF00000704700BF0348044B99
:10111000834202D0034B03B11847704714070020E5
:1011200014070020000000000548064B1B1AD90FC9
:1011300001EBA301491002D0034B03B118477047DC
:1011400014070020140700200000000010B5064C12
:10115000237843B9FFF7DAFF044B13B10448AFF328
:1011600000800123237010BD18070020000000003C
:1011700014CC000808B5054B1BB105490548AFF371
:101180000080BDE80840FFF7CFBF00BF00000000AF
:101190001C07002014CC00082DE9F04389B000247E
:1011A0000494059406940794564B9A6942F01002F1
:1011B0009A619A6902F010020092009A9A6942F0CC
:1011C00020029A619A6902F020020192019A9A69BA
:1011D00042F004029A619A6902F004020292029AB1
:1011E0009A6942F008029A619B6903F0080303932D
:1011F000039B454E22469E21304601F038FB434F6B
:10120000224640F20341384601F031FB8623049325
:101210000125059506944FF00309CDF81C9004A90B
:10122000304601F00FFA08230493059506954FF018
:101230000208CDF81C8004A9304601F003FA1023FF
:101240000493112305930695CDF81C8004A930461C
:1012500001F0F8F9CDF8109005950694CDF81C90A2
:1012600004A9384601F0EEF94FF480630493059524
:101270000694CDF81C8004A9384601F0E3F94FF438
:101280000069CDF810900594069404A9384601F041
:10129000D9F945F230030493DFF87480CDF8148057
:1012A000069504A9384601F0CDF9CDF81090CDF897
:1012B0001480069504A9304601F0C4F94FF40043A8
:1012C00004930594069504A9304601F0BBF9224623
:1012D00021460A2001F026F80A2001F033F82246C0
:1012E0002146172001F01EF8172001F02BF82246A6
:1012F0002146282001F016F8282001F023F809B033
:10130000BDE8F0830010024000080140000C0140DD
:101310000000211008B50B480B4B03600B4B4360DA
:1013200000238360C3604FF48042026143618361A4
:10133000C361036201F00EFD00B908BD00F058F86A
:10134000FBE700BF3407002000540040A0860100E6
:1013500010B586B0002302930393049305930268AB
:10136000154B9A4201D006B010BD144CA36943F04E
:101370000803A361A36903F008030093009B4FF4E3
:1013800040730293122303930323059302A90C488D
:1013900001F058F90B4A536843F0E06343F002034D
:1013A0005360E36943F40013E361E36903F400135A
:1013B0000193019BD7E700BF00540040001002409A
:1013C000000C01400000014008B50748074B0360CE
:1013D0000223436040F6FF73836002F001F800B916
:1013E00008BD00F005F8FBE788070020003000404A
:1013F00072B6FEE700B595B0282200210DEB020081
:1014000005F0D0FC002305930693079308930993F6
:1014100001930293039304930D230A934FF48032B4
:101420000B9201230D930E931093022311931292AA
:101430004FF4E01313930AA802F022F8C8B90F235F
:10144000059302210691002307934FF480620892CE
:10145000099305A802F046FA68B9012301934FF4F5
:101460008073029301A802F019FB30B915B05DF842
:1014700004FBFFF7BDFFFFF7BBFFFFF7B9FF00005D
:1014800080B582B000F0D0FE04F01CFE04F0AEFF88
:1014900005F042F808221146FF2005F09FF904F0FC
:1014A00097FDFFF7A7FFFFF777FE00F05DFD00F067
:1014B00001FE00F091FD00F015FAFFF72BFFFFF79A
:1014C00083FFC24802F0C6FCC14802F0C3FC03F02F
:1014D00053FB01221021BF4801F0C9F938E0BE4892
:1014E00005F092FABD4801F0A9FF39E1BC4C94F82F
:1014F0004B302370204604F05DF80121204604F0B3
:1015000043F80021204604F03FF801260196082503
:1015100000950323B34A12883821622004F08EFC20
:1015200001960095022322783821572004F086FC8A
:1015300004F0E6FAAB4B1B880133AB4A82FB032372
:101540009B100133A64A82F84B30A44801F076FF85
:10155000DFF89892DFF898A24946504604F0FAFD69
:1015600005F05EF804F07AFFA24F38609A4E70687A
:10157000FFF75EFADFF86C82A8F800009E4DEC1EC3
:10158000AB1C01936B1C00932B466A1EA91E2046C0
:1015900004F0A4F915F8012C15F8021C15F8030C39
:1015A00004F094F8954B186005F0ACFB15F8013C7D
:1015B00015F8022C15F8031C914805F03DFBAB789B
:1015C0006A78E1788F4805F037FBDAF80000FEF71B
:1015D00003FF02460B468C4805F02EFBD9F80000AD
:1015E000FEF7FAFE02460B46884805F025FB3068F8
:1015F000FEF7F2FE02460B46854805F01DFB7068BB
:10160000FEF7EAFE02460B46824805F015FBB8F8E5
:101610000010814805F010FB3868FEF7DDFE024639
:101620000B467E4805F008FBDFF8F481D8F800107F
:101630007C4BA3FB01310022C1F38711082005F088
:10164000B7F8D8F80030784DA5FB03235B09774C39
:10165000A4FB0321C90801EB8101A3EB4101002296
:10166000C9B2072005F0A4F8D8F80030A5FB032183
:101670004909642707FB1131A4FB01310022C1F3A2
:10168000C701062005F094F8D8F80030A4FB032128
:10169000C90801EB8101A3EB41010022C9B2052079
:1016A00005F086F862497068FFF74CF8FFF79AF981
:1016B000604B186085FB0035C317C3EB65155E4BA7
:1016C0001D6007FB15055D4B1D6042F20F739842CC
:1016D00005DD594B63221A60584B00221A60564DA3
:1016E0002968414C84FB0123C917C1EBA3010022E7
:1016F000C9B2042005F05CF82B6884FB0312D917EB
:10170000C1EBA20101EB8101A3EB41010122C9B2AE
:10171000032005F04DF8494D296884FB0123C917C2
:10172000C1EBA3010022C9B2022005F041F82B68E9
:1017300084FB0324D917C1EBA40101EB8101A3EBC6
:1017400041010022C9B2012005F032F8344B1B6878
:10175000642202FB03F3374A12689342BFF4BFAE20
:101760003749224B1868FEF7EDFF364B18603049B9
:101770001F4B1868FEF7E6FF334B1860164C3049D4
:101780002068FEF7DFFF314B18602D496068FEF7D7
:10179000D9FF2F4B18602F4B1B78244AA2FB031252
:1017A00002F0FC0101EB92029B1ADBB2042B3FF624
:1017B000C1AE01A252F823F0B9180008751800084C
:1017C0007B180008ED140008591800084408002090
:1017D000FC07002000080140B8070020880700200F
:1017E00004090020A007002067666666D007002075
:1017F000CC070020C80700209B070020940700208A
:1018000030CC000844CC000858CC00086CCC000850
:1018100080CC000894CC0008A8CC0008BCCC000800
:101820001C000020D34D62101F85EB51CDCCCCCCD9
:101830000000C842AC070020A8070020A407002031
:1018400000007A44C4070020C0070020B40700202D
:10185000B0070020210000200123019310230093F2
:1018600003231D4A12880021502004F0E7FA04F0F7
:1018700047F95FE603F018FD5CE603F0BFFD174B88
:101880001B68642202FB03F3154A126893420AD3D1
:1018900001230093102319223021502004F018FB5B
:1018A00004F02EF946E60123009310231A2230217A
:1018B000502004F00DFBF3E703F05EF901230193E0
:1018C000102300930323044A12883021502004F08F
:1018D000B5FA04F015F92DE6A00700201C00002041
:1018E000AC07002000B587B00023ADF814308DF8A8
:1018F00016300493029303931448154B03604FF082
:10190000FF3343604FF48073836002F00DFA50B9E7
:1019100001210E4802F068FA45F65223984205D19B
:1019200007B05DF804FBFFF763FDF1E71A460121FC
:10193000064802F051FA0023019332230093092351
:101940001C220C21182003F069FFE9E7D4070020CE
:101950000028004002680C4B9A4200D0704700B546
:1019600083B001F071FD094BDA6942F00062DA617F
:10197000DB6903F000630193019B054B0122C3F86F
:101980003C2403B05DF804FB002800400010024036
:101990000000424282B00E4B9A6942F001029A6105
:1019A0009A6902F001020092009ADA6942F08052CC
:1019B000DA61DB6903F080530193019B054A5368A8
:1019C00023F0E06343F00073536002B0704700BF40
:1019D0000010024000000140FEE7FEE7FEE7FEE7E0
:1019E000FEE770477047704708B500F02FFC08BD50
:1019F00008B50B4B5B6913F0100F03D1102000F0FA
:101A00003DFF08BD1021074800F02AFF18B9064A1B
:101A1000136801331360024B10225A61EEE700BFD6
:101A200000040140000C01401C00002008B50B4BD5
:101A30005B6913F0200F03D1202000F01FFF08BDC9
:101A40002021074800F00CFF18B9064A1368013B33
:101A50001360024B20225A61EEE700BF00040140F0
:101A6000000C01401C00002008B50A4B1B681A69D5
:101A700012F0010F0AD0DA6812F0010F06D0064901
:101A80000A7801320A706FF001021A61014802F00F
:101A900033FA08BD44080020DC0D002008B5084BCF
:101AA0001B681A6912F0010F06D0DA6812F0010FF4
:101AB00002D06FF001021A61014802F01DFA08BD60
:101AC000FC07002008B5024802F006FE08BD00BF72
:101AD0008C08002010B5AA4B5B6913F4805F18D105
:101AE000A74B5B6913F4804F40F0D280A44B5B6935
:101AF00013F4006F40F086814FF4006000F0BEFEEA
:101B00004FF4805000F0BAFE4FF4804000F0B6FE73
:101B100010BD4FF480519B4800F0A2FE002844D134
:101B2000994B01221A70994B197802F1CC32A2FB21
:101B3000013202F0FC0303EB9203CB1A13F0FF0F08
:101B400038D0924B1978924AA2FB013202F0FC0382
:101B500003EB9203CB1ADBB2012B36D08B4B1978F7
:101B60008B4AA2FB013202F0FC0303EB9203CB1A77
:101B7000DBB2022B38D0854B1978854AA2FB0132A3
:101B800002F0FC0303EB9203CB1ADBB2032B3CD035
:101B90007E4B1B787E4AA2FB031202F0FC0101EB94
:101BA00092029B1ADBB2042B55D0754B4FF4805236
:101BB0005A6195E7744B00221A700131734B19700A
:101BC00003F0D4FF03F05CF8BBE76F4B1B78012BED
:101BD000C4D16D4B00221A7001316C4B197003F0A7
:101BE000C5FF03F0FCF8B9E7674B1B78012BC2D1A6
:101BF000654B00221A700131644B197003F0B6FF77
:101C000002F0EAFE03F07CFFB5E75F4B1B78012B87
:101C1000BED100245C4B1C7001315C4B197003F089
:101C2000A5FF02F05DFF0C225A495B4804F040FE1C
:101C3000234606E0574A32F81310584A22F8131088
:101C40000133052BF6DD03F0EDFA0120544B18703B
:101C500003F074F99CE74C4B1B78012BA5D1504B3A
:101C60001B78002BA1D0484A002111700133D8B253
:101C70004B4C207003F062F92378072B95D9012291
:101C8000227003F073FF414A1378013313708CE71D
:101C90004FF480413B4800F0E3FD002843D13A4B2C
:101CA00002221A70394B1978394AA2FB013202F02C
:101CB000FC0303EB9203CB1ADBB2012B38D0334B7E
:101CC0001978334AA2FB013202F0FC0303EB9203C2
:101CD000CB1ADBB2022B34D02C4B19782C4AA2FB46
:101CE000013202F0FC0303EB9203CB1ADBB2032BAD
:101CF00036D0264B1B78264AA2FB031202F0FC01C9
:101D000001EB92029B1ADBB2042B4BD01F4B1978CC
:101D10001F4AA2FB013202F0FC0303EB9203CB1A31
:101D2000DBB2042B5BD0164B4FF480425A61DDE6E8
:101D3000154B00221A700139144B197003F016FF6D
:101D4000BDE7114B1B78022BC6D10F4B00221A7036
:101D500001390E4B197003F009FF02F091FFBBE748
:101D6000094B1B78022BC4D1074B00221A70013992
:101D7000064B197003F0FAFE03F031F8B9E700BF23
:101D800000040140000C0140F40700202100002065
:101D9000CDCCCCCCF808002000F80008E8070020E3
:101DA00020000020374B1B78022BAFD1364B1B781D
:101DB000082BABD8334A00211170013BD8B2324C0A
:101DC000207003F0BBF82378002B9FD12F4A1378A3
:101DD000013B137003F0CAFE02F0FEFD96E7294BAB
:101DE0001B78022B9FD1284B1B78002B9BD1254BB6
:101DF00000221A700139254B197003F0B7FE02F06A
:101E0000EBFD90E74FF40061214800F029FD78B91F
:101E10001C4B03221A701D4B1B781E4AA2FB031297
:101E200002F0FC0101EB92029B1ADBB2042B04D0FE
:101E3000194B4FF400625A615EE6124B00221A7091
:101E4000114B1878012816D1062306E05A1E1349B3
:101E500031F8120021F813001346002BF6DC104B6A
:101E60001A880E4B1A800C220C490E4804F044FDCF
:101E700003F0D8F9DCE702380849C0B203F022FBCE
:101E8000F1E700BFF407002020000020210000201F
:101E900000080140CDCCCCCC00040140E807002074
:101EA000A007002000F800080120704708B505F0E1
:101EB0001DF8162303604FF0FF3008BD08B54FF042
:101EC000FF31FFF7F3FFFEE770B50C46164600251D
:101ED00006E0AFF30080214601F8010B01350C4606
:101EE000B542F6DB304670BD70B50C46164600258F
:101EF00004E014F8010B00F03BF90135B542F8DBC2
:101F0000304670BD4FF0FF3070474FF400534B60C8
:101F100000207047012070470020704710B503462D
:101F20000C4A0D490D48006840B10C480068034454
:101F3000521A934206D8094A136010BD0748084C4C
:101F40000460F2E704F0D2FF0C2303604FF0FF308F
:101F5000F3E700BF0050002000040000F807002055
:101F6000181500207047000000B587B000230293C9
:101F7000039304930593009301931548154A026057
:101F800047224260836040F2E732C26003614361EE
:101F9000836102F0A3F890B94FF48053029302A931
:101FA0000B4802F0D3F868B9002300930193694607
:101FB000074802F04BF940B907B05DF804FBFFF7A2
:101FC00017FAE9E7FFF714FAEEE7FFF711FAF3E77C
:101FD00044080020002C014000B587B00023029384
:101FE0000393049305930093019315484FF08042A7
:101FF000026047224260836040F2E732C2600361C0
:10200000836102F06BF890B94FF48053029302A9F8
:102010000B4802F09BF868B90023009301936946CE
:10202000074802F013F940B907B05DF804FBFFF769
:10203000DFF9E9E7FFF7DCF9EEE7FFF7D9F9F3E7B6
:10204000FC07002000B583B00368184A934205D00E
:10205000B3F1804F15D003B05DF804FB144B9A69BF
:1020600042F400629A619B6903F400630093009B51
:1020700000221146192000F055F9192000F062F9EC
:10208000E9E703F50433DA6942F00102DA61DB695A
:1020900003F001030193019B002201211C2000F0A9
:1020A00041F91C2000F04EF9D5E700BF002C01409B
:1020B0000010024008B50A480A4B03604FF4E133B0
:1020C000436000238360C36003610C22426183612B
:1020D000C36102F0DEF900B908BDFFF789F9FBE73B
:1020E0008C0800200038014070B586B000230293B0
:1020F00003930493059302681B4B9A4201D006B0E8
:1021000070BD03F558439A6942F480429A619A6916
:1021100002F480420092009A9A6942F004029A61A5
:102120009B6903F004030193019B4FF40073029336
:1021300002250395032305930C4E02A9304600F0B7
:1021400081FA4FF48063029300240394049402A95B
:10215000304600F077FA22462946252000F0E2F8C2
:10216000252000F0EFF8CAE70038014000080140E0
:1021700000B583B001904FF0FF33012201A903485D
:1021800002F0B7F9019803B05DF804FB8C08002059
:10219000FFF7E8FE0B480C490C4A002302E0D45834
:1021A000C4500433C4188C42F9D3094A094C0023A3
:1021B00001E013600432A242FBD304F09DFEFFF75E
:1021C0005FF97047000000201407002070F200083B
:1021D0001807002014150020FEE7000010B5044683
:1021E0000E4B1A784FF47A73B3FBF2F30C4A106873
:1021F000B0FBF3F000F0B4F868B90F2C01D901205E
:102200000AE0002221464FF0FF3000F08BF8054B2A
:102210001C60002000E0012010BD00BF280000204D
:10222000240000202C00002008B5074A136843F062
:1022300010031360032000F063F80F20FFF7CEFFB8
:10224000FFF7A8FB002008BD00200240034A1168E8
:10225000034B1B780B441360704700BFD408002069
:1022600028000020014B1868704700BFD4080020E8
:1022700038B50446FFF7F6FF0546B4F1FF3F02D03C
:10228000044B1B781C44FFF7EDFF401BA042FAD320
:1022900038BD00BF28000020002808DB0901C9B2B2
:1022A00000F1604000F5614080F80013704700F0D5
:1022B0000F000901C9B2014B1954704714ED00E039
:1022C00000B500F00700C0F1070CBCF1040F28BFF7
:1022D0004FF0040C031D062B0FD9C31E4FF0FF3E19
:1022E0000EFA0CF021EA000199400EFA03FE22EAF0
:1022F0000E0241EA02005DF804FB0023EEE7000055
:10230000074AD36823F4E0631B041B0C000200F4AB
:10231000E060034343F0BF6343F40033D36070478E
:1023200000ED00E010B50446054BD868C0F302206C
:10233000FFF7C6FF01462046FFF7AEFF10BD00BF06
:1023400000ED00E0002807DB00F01F024009012338
:102350009340024A42F82030704700BF00E100E09D
:102360000138B0F1807F0BD24FF0E0235861054A6D
:10237000F02182F823100020986107221A6170472B
:102380000120704700ED00E0034690F82120D2B212
:10239000022A06D004228263002280F82020012035
:1023A000704701680A6822F00E020A6001680A6834
:1023B00022F001020A60026CC06B012101FA02F2F4
:1023C000426083F82110002083F82000704700004D
:1023D00008B590F82130DBB2022B03D004238363CD
:1023E000012008BD0268136823F00E031360026821
:1023F000136823F0010313600368194A934214D051
:10240000143293421FD0143293421ED0143293429E
:102410001ED0143293421ED01432934202D04FF099
:10242000807203E04FF4801200E001220D4B5A60ED
:10243000012380F82130002380F82030436B6BB1FA
:1024400098470020CDE71022F0E74FF48072EDE7C7
:102450004FF48052EAE74FF48032E7E70020C0E70C
:102460000800024000000240044B0022DA61044AE6
:10247000136943F00103136101807047D8080020FD
:1024800000200240194BDB6813F0100305D0184AF6
:10249000D36943F00203D3611023144AD26812F0C7
:1024A000040F06D01249CA6942F00102CA6143F022
:1024B00004030E4AD26912F0010F09D00C49CA690F
:1024C00042F00402CA610949CA6922F00102CA61E4
:1024D00040F20112934202D0044AD3607047034A8B
:1024E000D36923F00103D361704700BF002002408D
:1024F000D80800200A4B1B6913F0800F0BD0084B43
:10250000084A5A6002F188325A601B6913F0800F42
:1025100003D100207047002070470120704700BFA2
:102520000020024023016745034A136943F08003FA
:1025300013610020704700BF0020024038B50446F8
:10254000FFF790FE0546164BDB6813F0010F0AD02B
:10255000B4F1FF3FF7D024B1FFF784FE401BA04247
:10256000F1D903201BE00E4BDB6813F0200F02D0E3
:102570000B4B2022DA600A4BDB6813F0100F0BD1F3
:10258000074BDB6913F0010F06D1054BDB6813F035
:10259000040F01D1002002E0FFF774FF012038BDD5
:1025A000002002402DE9F8431E46244B1B7E012BE0
:1025B00041D004460F469046204B01221A764CF239
:1025C0005030FFF7BBFF034678BB012C08D0022C2C
:1025D00003D04FF004091C4607E04FF00209FAE768
:1025E0004FF00109F7E70134E4B24C451DD2210157
:1025F000C1F12002A1F1200328FA01F106FA02F24A
:10260000114326FA03F3194389B207EB4400FFF79D
:102610002BFF4CF25030FFF791FF094B1D6925F05D
:1026200001051D6103460028DDD0044A0021117612
:102630001846BDE8F8830223FAE700BFD808002057
:102640000020024070B582B00024A446A1E07E4D77
:10265000AB4214D00CD8A5F58015AB420FD005F5D0
:102660007025AB420BD0A5F58015AB4210D106E02A
:10267000764DAB4203D005F58035AB4208D18B686F
:10268000002B50D0012B49D04261082400E0CC68D7
:10269000BEF1FF0F49D806464FEA8C0233680F257A
:1026A000954023EA050304FA02F2134333604B68B2
:1026B00013F0805F6BD0664B9A6942F001029A6119
:1026C0009B6903F001030193019B4FEA9C02951C57
:1026D000604B53F825600CF00305AD000F23AB40B1
:1026E00026EA03065C4B984226D003F580639842A5
:1026F00000F08C8003F58063984200F0898003F538
:102700008063984216D0042317E0CC680434BFE7F6
:10271000CC680834BCE7CC680C34B9E70261082403
:10272000B6E70024B4E70424B2E7061DACF10802C2
:102730009200B3E7032300E00023AB4033430232AF
:10274000444D45F822304B6813F4801F62D0434A51
:10275000936843EA0E0393604B6813F4001F5FD045
:102760003E4AD36843EA0E03D3604B6813F4003F3C
:102770005CD03A4A536843EA0E0353604B6813F443
:10278000803F59D0354A136843EA0E0313600CF1B9
:10279000010C0B6833FA0CF254D0012202FA0CF24D
:1027A00003EA020E32EA0303F1D14B68122B3FF623
:1027B0004EAF122B3FF66CAF01A555F823F000BFCA
:1027C0007F2600088F26000811270008232700080D
:1027D00091260008912600089126000891260008FD
:1027E00091260008912600089126000891260008ED
:1027F00091260008912600089126000891260008DD
:10280000912600080B27000817270008012394E7EA
:10281000022392E7114A936823EA0E0393609BE731
:102820000E4AD36823EA0E03D3609EE70B4A53682F
:1028300023EA0E035360A1E7084A136823EA0E0354
:102840001360A4E702B070BD000022100000311038
:102850000010024000000140000801400004014057
:102860008368194201D001207047002070470AB1E7
:1028700001617047090401617047704708B5054B55
:102880005B69034200D108BD024B5861FFF7F5FFB9
:10289000F9E700BF0004014003685A6912F4806F31
:1028A00001D1002070476FF480625A6100230363F6
:1028B000202280F83D2080F83E30026C42F0040275
:1028C000026480F83C30012070472DE9F041064653
:1028D0000C46174698463BE0FFF7C4FC069BC01A1F
:1028E000404502D8B8F1000F32D1012D18D033681D
:1028F0009B6924EA03039BB2B3FA83F35B099F420B
:1029000026D100233363202286F83D2086F83E300E
:10291000326C42F02002326486F83C30012027E01D
:1029200033685B6924EA03039BB2B3FA83F35B0960
:10293000E5E733685B6924EA030C1FFA8CFCBCFAF8
:102940008CFC4FEA5C1C674511D1B8F1FF3FC3D145
:10295000C4F30745012DECD033689B6924EA030CCE
:102960001FFA8CFCBCFA8CFC4FEA5C1CEBE70020E5
:10297000BDE8F0812DE9F84305460E46904699469C
:1029800053E01A6842F400721A602B686FF4806298
:102990005A6100232B63202285F83D2085F83E30C4
:1029A0002A6C42F004022A6485F83C3001204AE097
:1029B000FFF758FCA0EB0900404502D8B8F1000F22
:1029C00033D1012F17D02B689B6926EA03039BB2F2
:1029D000003B18BF012343B300232B63202285F85B
:1029E0003D2085F83E302A6C42F020022A6485F8AA
:1029F0003C30012027E02B685B6926EA03039BB289
:102A0000003B18BF0123E6E72B689C6926EA040413
:102A1000A4B2003C18BF0124A4B12B685A6912F477
:102A2000806FAED1B8F1FF3FC2D1C6F30747012F87
:102A3000EAD12B685C6926EA0404A4B2003C18BF02
:102A40000124E9E70020BDE8F8830000F0B583B079
:102A500004460D4616461F46C36A082B0DD0012BAF
:102A60000BD013F5803F08D0036B122B0AD10268FC
:102A7000136843F48073136004E02268136843F41E
:102A8000807313600097334600224FF001112046F7
:102A9000FFF71BFF80B92369B3F5804F16D1236878
:102AA00005F0FE051D613B46324613492046FFF7FF
:102AB00061FFF8B903B0F0BD23681B6813F4807F91
:102AC00002D04FF4007323640320F3E7EB11226874
:102AD00003F0060343F0F00313613B463246074917
:102AE0002046FFF747FF18B92368EDB21D61DAE70A
:102AF0000120DFE70120DDE70200010008000100FE
:102B00002DE9F04184B004460D4616461F46C26AC0
:102B100001680B6843F480630B60082A0DD0012A1A
:102B20000BD012F5803F08D0036B112B0AD102683D
:102B3000136843F48073136004E02268136843F45D
:102B4000807313600097334600224FF00111204636
:102B5000FFF7BBFE98B92369B3F5804F19D12368FD
:102B600045F00105EDB21D613B4632462A4920463B
:102B7000FFF700FF00284CD104B0BDE8F0812368C6
:102B80001B6813F4807F02D04FF40073236403208A
:102B9000F2E74FEAE51808F00608236848F0F0026B
:102BA0001A613B4632461D492046FFF7E3FE08B155
:102BB0000120E1E72368EDB21D613B46324616492C
:102BC0002046FFF7D7FE08B10120D5E70022039287
:102BD000236859690391996903910399196841F42C
:102BE00080711960009733464FF001112046FFF7BE
:102BF0006CFE20B9226848F0F1031361B4E7236842
:102C00001B6813F4807F02D04FF400732364032009
:102C1000B2E70120B0E700BF020001000800010098
:102C200070B504460D46164623685B6913F0800FA5
:102C300021D12046FFF730FEF8B9B5F1FF3FF3D0C0
:102C4000FFF710FB801BA84201D8002DECD12368B0
:102C50005B6913F0800FE7D100232363202284F8FF
:102C60003D2084F83E30226C42F02002226484F839
:102C70003C30012000E0002070BD0120FCE770B571
:102C800004460D46164623685B6913F0040F21D1F4
:102C90002046FFF701FEF8B9B5F1FF3FF3D0FFF78B
:102CA000E1FA801BA84201D8002DECD123685B69B2
:102CB00013F0040FE7D100232363202284F83D2082
:102CC00084F83E30226C42F02002226484F83C30CA
:102CD000012000E0002070BD0120FCE770B5044633
:102CE0000D46164614E06FF010025A61002323636C
:102CF000202284F83D2084F83E30226C226484F83F
:102D00003C30012025E023685B6913F0400F10D0B0
:102D10002368586910F0400F1AD1586910F0100F4D
:102D2000E1D1FFF79FFA801BA842ECD8002DEFD12C
:102D3000E9E700232363202284F83D2084F83E3015
:102D4000226C42F02002226484F83C30012000E032
:102D5000002070BD002800F0CC8070B5044690F8CB
:102D60003D30002B77D0242384F83D30226813684F
:102D700023F0010313602268136843F400431360D7
:102D80002268136823F40043136000F067FE626852
:102D90005A4B9A4264D85A4B98428CBF0023012365
:102DA000002B40F0A8805749A1FB00318B0C25680F
:102DB0006A6822F03F0242EA91426A6021680A6A28
:102DC00022F03F0266684D4DAE424FD801331343A7
:102DD0000B622168CA6922F44F4222F0FF02656843
:102DE000464B9D424CD8431E6D00B3FBF5F30133B7
:102DF00040F6FC70034278D0C3F30B031A43CA6158
:102E000021680B6823F0C003E269206A0243134380
:102E10000B6021688B6823F4034323F0FF032269CE
:102E2000E068024313438B602168CB6823F0FF0303
:102E30006269A06902431343CB602268136843F0C0
:102E40000103136000202064202384F83D302063B8
:102E500084F83E0070BD80F83C30FEF779FA82E7D6
:102E6000294B98428CBF0023012399E74FF49675B4
:102E700005FB03F3254DA5FB03539B090133A6E78F
:102E8000A668BEB9431E05EB450CB3FBFCF301334A
:102E9000C3F30B03B3FA83F35B0943BBC6B9431E09
:102EA00005EB4505B3FBF5F30133C3F30B0343F423
:102EB0000043A3E7431E05EB850C0CEB8C0CB3FB26
:102EC000FCF30133C3F30B03B3FA83F35B09E4E7C9
:102ED000431E05EB850505EB8505B3FBF5F30133D3
:102EE000C3F30B0343F4404388E7042386E701233D
:102EF00084E7012070470120ACE700BFA0860100F5
:102F00007F841E0083DE1B43FF083D00D34D62100B
:102F10002DE9F04385B004460F46914698460C9E35
:102F2000FFF7A0F9054694F83D00C0B2202804D070
:102F30000227384605B0BDE8F08300951923012229
:102F40004F492046FFF7C1FC002840F0928094F8DA
:102F50003C30012B00F08F80012384F83C30236843
:102F60001A6812F0010F03D11A6842F001021A60C8
:102F70002268136823F400631360212384F83D3032
:102F8000102384F83E3000232364C4F82490A4F86E
:102F90002A80638D23853B4BE3622B4632463946BC
:102FA0002046FFF753FD0746002866D10023039310
:102FB00023685A6903929B690393039B11E0236C76
:102FC000042B01D00127B4E72268136843F400738F
:102FD0001360F7E72A4631462046FFF750FE0028E7
:102FE0002ED1238D002B36D02A4631462046FFF7BE
:102FF00017FE0028E3D1626A236812781A61606ABA
:10300000431C6362618D89B2013989B26185238D68
:10301000013B9BB223852268516911F0040FD9D07E
:10302000002BD7D043781361636A01336362638DE9
:103030009BB2013B9BB26385238D013B2385C9E78E
:10304000236C042B01D0012773E72268136843F433
:1030500000731360F7E72268136843F4007313608A
:10306000202384F83D30002384F83E3084F83C303F
:103070005FE702275DE702275BE7012759E700BF0B
:10308000020010000000FFFF2DE9F04389B0044664
:103090000F4691469846109E00230793FFF7E2F8EB
:1030A000054694F83D00C0B2202804D002273846D7
:1030B00009B0BDE8F083009519230122804920461C
:1030C000FFF703FC002840F07A8194F83C30012B94
:1030D00000F07781012384F83C3023681A6812F0ED
:1030E000010F03D11A6842F001021A6022681368C6
:1030F00023F400631360222384F83D30102384F806
:103100003E3000232364C4F82490A4F82A80638D01
:1031100023856C4BE3622B46324639462046FFF747
:10312000EFFC0746002840F04E81238D5BB90393E6
:1031300023685A6903929A690392039A1A6842F4BF
:1031400000721A60F3E0012B0FD0022B21D022680D
:10315000136843F4806313600023069323685A695D
:1031600006929B690693069BE1E02268136823F4AC
:103170008063136072B60023049323685A69049233
:103180009A690492049A1A6842F400721A6062B64C
:10319000CDE02268136843F40063136072B6002325
:1031A000059323685A6905929A690592059A1A68E7
:1031B00022F480621A6062B6B9E02A46314620469F
:1031C000FFF78CFD002840F0008123681A69636ACC
:1031D0001A70636A01336362238D013B2385638D1B
:1031E0009BB2013B9BB26385A1E000953346002270
:1031F00035492046FFF769FB002840F0EA80226845
:10320000136823F48063136072B623681A69636AD3
:103210001A70636A01336362238D013B2385638DDA
:103220009BB2013B9BB26385284B1B68DB08284A95
:10323000A2FB03231B0A03EB8303C3EBC303079324
:103240000799013907910799002928D023685A69FD
:1032500012F0040FF4D01A6842F400721A60236866
:103260001A69636A1A70636A01336362238D013BD2
:103270002385638D9BB2013B9BB2638562B6236855
:103280001A69636A1A70636A01336362238D013BB2
:103290002385638D9BB2013B9BB2638547E000238E
:1032A0002363202284F83D2084F83E30226C42F0D3
:1032B0002002226462B684F83C300127F7E600BFA2
:1032C000020010000000FFFF0400010024000020A5
:1032D00089B5F8142A4631462046FFF7FFFC00283E
:1032E00079D123681A69636A1A70636A0133636269
:1032F000228D013A92B22285638D9BB2013B9BB233
:1033000063852368596911F0040F10D0032A48D04F
:1033100023681A69636A1A70636A01336362238DD2
:10332000013B2385638D9BB2013B9BB26385218D5D
:1033300000293BD00329CDD801293FF43EAF022913
:103340007FF453AF00953346002224492046FFF70F
:10335000BCFA00283BD172B62268136843F40073AC
:10336000136023681A69636A1A70636A01336362BF
:10337000238D013B2385638D9BB2013B9BB263850B
:1033800062B623681A69636A1A70636A01336362FA
:10339000238D013B2385638D9BB2013B9BB26385EB
:1033A000C5E71A6822F480621A60B1E7202384F826
:1033B0003D30002384F83E3084F83C3077E6022725
:1033C00075E6022773E6012771E601276FE60127FC
:1033D0006DE601276BE6012769E600BF04000100E6
:1033E00050B338B5044603684CF6CC421A60036803
:1033F00045F255521A60036842685A600368826851
:103400009A60FEF72FFF05462368DA6812F0030F73
:103410000DD0FEF727FF401B41F23C339842F3D911
:103420002368DB6813F0030FEED0032003E04AF6B5
:10343000AA221A60002038BD0120704703684AF6AE
:10344000AA221A6000207047014B01221A627047BD
:1034500000000E4282B0084B1B68084AA2FB0323FF
:103460005B0A00FB03F3019300BF019B5A1E01920C
:10347000002BF9D102B0704724000020D34D621018
:10348000002800F0F18170B582B00446036813F0A3
:10349000010F2CD0994B5B6803F00C03042B1DD05B
:1034A000964B5B6803F00C03082B12D06368B3F5EE
:1034B000803F41D0002B55D103F1804303F5043305
:1034C0001A6822F480321A601A6822F480221A6084
:1034D00037E08A4B5B6813F4803FE7D0874B1B686B
:1034E00013F4003F03D06368002B00F0BF81236812
:1034F00013F0020F75D0814B5B6813F00C0F5FD097
:103500007E4B5B6803F00C03082B54D02369002B1F
:1035100000F08A807A4B01221A60FEF7A3FE05466E
:10352000764B1B6813F0020F75D1FEF79BFE401B14
:103530000228F5D903209EE1704A136843F48033D2
:103540001360636843B3FEF78DFE05466B4B1B6843
:1035500013F4003FCBD1FEF785FE401B6428F5D95C
:10356000032088E1B3F5A02F09D0644B1A6822F438
:1035700080321A601A6822F480221A60E1E703F1AF
:103580008043A3F53C331A6842F480221A601A681B
:1035900042F480321A60D4E7FEF764FE0546574BCA
:1035A0001B6813F4003FA2D0FEF75CFE401B6428AA
:1035B000F5D903205FE1514B5B6813F4803FA5D13F
:1035C0004E4B1B6813F0020F03D02369012B40F010
:1035D0004F814A4A136823F0F803616943EAC10343
:1035E0001360236813F0080F33D0A369002B5CD05D
:1035F000434B0122C3F88024FEF734FE05463F4BBF
:103600005B6A13F0020F21D1FEF72CFE401B02284B
:10361000F5D903202FE1394A136823F0F8036169D3
:1036200043EAC1031360DCE7354B00221A60FEF762
:1036300019FE0546314B1B6813F0020FD1D0FEF77F
:1036400011FE401B0228F5D9032014E10120FFF7E9
:1036500001FF236813F0040F00F09680274BDB690D
:1036600013F0805F34D1254BDA6942F08052DA6181
:10367000DB6903F080530193019B0125214B1B68FB
:1036800013F4807F26D0E368012B3DD0002B53D16B
:1036900003F1804303F504331A6A22F001021A622F
:1036A0001A6A22F004021A6233E0154B0022C3F8B2
:1036B0008024FEF7D7FD0546104B5B6A13F0020F1E
:1036C000C7D0FEF7CFFD401B0228F5D90320D2E07A
:1036D0000025D3E70B4A136843F480731360FEF7A9
:1036E000C1FD0646074B1B6813F4807FCBD1FEF764
:1036F000B9FD801B6428F5D90320BCE0001002400E
:1037000000004242007000405F4A136A43F0010328
:103710001362E36833B3FEF7A5FD06465A4B1B6AF6
:1037200013F0020F2FD1FEF79DFD801B41F288336D
:103730009842F3D903209EE0052B09D0524B1A6A18
:1037400022F001021A621A6A22F004021A62E0E709
:103750004D4B1A6A42F004021A621A6A42F00102E0
:103760001A62D6E7FEF77EFD0646474B1B6A13F04A
:10377000020F08D0FEF776FD801B41F28833984295
:10378000F3D9032077E0E5B9E369002B72D03E4A14
:10379000526802F00C02082A56D0022B17D03B4B7D
:1037A00000221A66FEF75EFD0446374B1B6813F0D5
:1037B000007F47D0FEF756FD001B0228F5D90320F5
:1037C00059E0314AD36923F08053D361DCE72F4BB2
:1037D00000221A66FEF746FD05462B4B1B6813F0C8
:1037E000007F06D0FEF73EFD401B0228F5D90320DE
:1037F00041E0236AB3F5803F1AD023494B6823F494
:103800007413226A606A024313434B601F4B012208
:103810001A66FEF727FD04461B4B1B6813F0007F5A
:103820000ED1FEF71FFD001B0228F5D9032022E070
:10383000154A536823F40033A1680B435360DCE757
:10384000002018E0002016E0012B16D00E4B5B681C
:1038500003F48031226A914211D103F47013626A39
:1038600093420ED1002006E001207047012002E0C3
:10387000012000E0002002B070BD0120FBE7012024
:10388000F9E70120F7E700BF0010024000004242C4
:103890000F4B5B6803F00C02082A01D00D487047FB
:1038A000C3F383420C49885C13F4803F0BD0084B70
:1038B0005B68C3F34043094AD35C064A02FB00F04D
:1038C000B0FBF3F07047064B03FB00F0704700BFFE
:1038D0000010024000127A005CCF000858CF0008A8
:1038E00000093D00002800F0A08070B50D46044698
:1038F000524B1B6803F007038B420BD24F4A1368ED
:1039000023F007030B431360136803F007038B4294
:1039100040F08D80236813F0020F17D013F0040FCE
:1039200004D0474A536843F4E0635360236813F0BC
:10393000080F04D0424A536843F460535360404A2E
:10394000536823F0F003A1680B435360236813F01E
:10395000010F31D06368012B20D0022B25D0384ACB
:10396000126812F0020F64D035494A6822F003024F
:1039700013434B60FEF776FC0646314B5B6803F061
:103980000C036268B3EB820F16D0FEF76BFC801B52
:1039900041F288339842F0D9032045E0284A126862
:1039A00012F4003FE0D101203EE0254A126812F0F7
:1039B000007FD9D1012037E0204B1B6803F00703BB
:1039C000AB420AD91D4A136823F007032B43136047
:1039D000136803F00703AB422DD1236813F0040FE3
:1039E00006D0174A536823F4E063E1680B43536041
:1039F000236813F0080F07D0114A536823F460536B
:103A0000216943EAC1035360FFF742FF0C4B5B6837
:103A1000C3F303130B4AD35CD8400B4B18600B4B1A
:103A20001868FEF7DBFB002070BD01207047012005
:103A3000FAE70120F8E70120F6E700BF0020024086
:103A40000010024048CF0008240000202C00002075
:103A5000014B1868704700BF2400002008B5FFF72D
:103A6000F7FF044B5B68C3F30223034AD35CD840DF
:103A700008BD00BF0010024040CF000808B5FFF7A6
:103A8000E7FF044B5B68C3F3C223034AD35CD8400F
:103A900008BD00BF0010024040CF000870B582B0E2
:103AA0000446036813F0010F36D03F4BDB6913F077
:103AB000805F49D13C4BDA6942F08052DA61DB69C0
:103AC00003F080530193019B0125384B1B6813F4CD
:103AD000807F3BD0344B1B6A13F4407313D0626871
:103AE00002F440729A420ED02F4A136A23F44070B7
:103AF0002F490126C1F840640026C1F840641062D5
:103B000013F0010F36D1284A136A23F44073616819
:103B10000B431362002D3ED1236813F0020F06D031
:103B2000214A536823F44043A1680B435360236840
:103B300013F0100F34D01C4A536823F48003E1685B
:103B40000B43536000202CE00025BEE7174A1368A2
:103B500043F480731360FEF785FB0646134B1B6826
:103B600013F4807FB6D1FEF77DFB801B6428F5D966
:103B7000032016E0FEF776FB06460B4B1B6A13F09C
:103B8000020FC0D1FEF76EFB801B41F288339842D2
:103B9000F3D9032005E0D36923F08053D361BBE759
:103BA000002002B070BD00BF001002400070004055
:103BB0000000424208B502284ED0102803D0012848
:103BC00028D0002052E02B4B5A68186810F0807003
:103BD0004CD0C2F383432849C85C12F4803F15D00F
:103BE000244B5B68C3F34043244AD25C244BB3FBB1
:103BF000F2F303FB00F01F4B5B6813F4800F35D129
:103C00004000204BA3FB003040082FE01E4B03FB7D
:103C100000F0F0E7174B1B6A40F202321A40B2F58F
:103C2000817F24D003F44073B3F5007F04D0B3F553
:103C3000407F09D0002019E00E4A526A12F0020FAC
:103C4000F5D049F6404011E00A4B186810F40030F6
:103C50000CD04FF2244009E0FFF710FF054B5B68E2
:103C6000C3F3813301335B00B0FBF3F008BD4FF4C5
:103C70000040FBE70010024070CF00086CCF000846
:103C800000127A00ABAAAAAA00093D0038B5044682
:103C9000FEF7E8FA054623685A6812F0200F07D1AC
:103CA000FEF7E0FA401BB0F57A7FF4D9032004E078
:103CB0005A6842F010025A60002038BD38B50446F8
:103CC0000268536823F010035360FEF7CBFA0546F1
:103CD00023685B6813F0200F07D1FEF7C3FA401B7F
:103CE000B0F57A7FF4D9032000E0002038BDC0B1E0
:103CF00038B505460268536823F008035360FEF7A1
:103D0000B1FA04462B685B6813F0080F07D1FEF781
:103D1000A9FA001BB0F57A7FF4D9032000E0002057
:103D200038BD012070470000002850D010B504466F
:103D3000437C4BB1022363742046FFF7D8FF38B1B0
:103D400004236374012010BD0374FDF703FEF1E743
:103D50002046FFF79BFF28BB2268536823F0070328
:103D60005360A36823B11B4A136B23F00103136351
:103D7000184AD36A23F46073A1680B43D362636863
:103D8000B3F1FF3F12D02268C3F303419160226870
:103D90009BB2D3602046FFF791FF88B10423637480
:103DA0000120D0E7042363740120CCE70120FFF752
:103DB00001FF08B1431EE6E7042363740120C2E754
:103DC0000023E37301236373A3736374BBE70120D0
:103DD000704700BF006C0040890001F1804101F58F
:103DE000D84192B20A607047890001F1804101F523
:103DF000D841086880B2704710B4036A046A24F09E
:103E000001040462846924F0F00C4CEA021223F0ED
:103E10000A030B438261036210BC704710B4036A4B
:103E2000046A24F010040462846924F4704C4CEA9F
:103E3000023223F0A00343EA01138261036210BC43
:103E40007047836823F070030B4343F007038360DC
:103E50007047000090F83D30DBB2012B27D10223E0
:103E600080F83D300268D36843F00103D3600368F3
:103E7000114A934210D0B3F1804F0DD0A2F5943285
:103E8000934209D002F58062934205D01A6842F04D
:103E900001021A60002070479A6802F00702062AA1
:103EA00007D01A6842F001021A6000207047012012
:103EB00070470020704700BF002C01400268D368A3
:103EC00023F00103D3600368196A41F21112114211
:103ED00008D1196A40F24442114203D11A6822F013
:103EE00001021A60012380F83D30002070477047BE
:103EF000704770477047704770B504460368DE68C6
:103F00001D6915F0020F10D016F0020F0DD06FF0E2
:103F100002021A610123037703689B6913F0030F00
:103F20005ED0FFF7E6FF0023237715F0040F12D0D1
:103F300016F0040F0FD023686FF004021A610223F9
:103F4000237723689B6913F4407F4FD02046FFF707
:103F5000D0FF0023237715F0080F12D016F0080FBA
:103F60000FD023686FF008021A61042323772368B7
:103F7000DB6913F0030F40D02046FFF7BAFF0023A0
:103F8000237715F0100F12D016F0100F0FD0236802
:103F90006FF010021A61082323772368DB6913F49A
:103FA000407F31D02046FFF7A4FF0023237715F090
:103FB000010F02D016F0010F2DD115F0800F02D0A5
:103FC00016F0800F2FD115F0400F02D016F0400FE1
:103FD00031D115F0200F02D016F0200F33D170BD73
:103FE000FFF786FF2046FFF785FF9CE72046FFF797
:103FF0007FFF2046FFF77EFFABE72046FFF778FF05
:104000002046FFF777FFBAE72046FFF771FF20460B
:10401000FFF770FFC9E723686FF001021A612046BD
:10402000FFF765FFC9E723686FF080021A61204639
:1040300000F043F9C7E723686FF040021A61204699
:10404000FFF759FFC5E723686FF020021A61204689
:1040500000F032F9C3E7000003681F4A90420AD01B
:10406000B0F1804F07D0A2F59432904203D002F510
:104070008062904203D123F070034A681343164ACA
:1040800090420AD0B0F1804F07D0A2F5943290420E
:1040900003D002F58062904203D123F44073CA68D2
:1040A000134323F080034A69134303608B68C362A0
:1040B0000B688362084B98420AD00123436103696D
:1040C00013F0010F03D0036923F00103036170476C
:1040D0000B690363F1E700BF002C014040B310B54A
:1040E000044690F83D30F3B1022384F83D30214678
:1040F00051F8040BFFF7B0FF012384F8463084F831
:104100003E3084F83F3084F8403084F8413084F801
:10411000423084F8433084F8443084F8453084F8E1
:104120003D30002010BD80F83C30FDF78BFFDBE711
:104130000120704710B4846824F47F4C42EA0322C3
:104140000A4342EA0C02826010BC704790F83C308F
:10415000012B78D010B50446012380F83C300223AF
:1041600080F83D300268936823F47F4323F077039F
:1041700093600B68602B4CD023D8402B54D011D8BF
:10418000202B03D00AD80BB1102B05D1194620687B
:10419000FFF757FE002028E0012026E0302BF5D065
:1041A000012022E0502B0AD1CA6849680068FFF755
:1041B00023FE50212068FFF744FE002015E0012077
:1041C00013E0B3F5805F3AD0B3F5005F14D0702BE5
:1041D00037D1CB684A6889680068FFF7ABFF22686F
:1041E000936843F0770393600020012384F83D3007
:1041F000002384F83C3010BDCB684A6889680068A9
:10420000FFF798FF2268936843F48043936000208F
:10421000EBE7CA6849680068FFF700FE6021206884
:10422000FFF70FFE0020E0E7CA6849680068FFF763
:10423000E3FD40212068FFF704FE0020D5E70020C1
:10424000D3E70120D1E702207047000090F83C201E
:10425000012A2CD010B40346012280F83C2002220F
:1042600080F83D2002685068946820F0700C08685F
:1042700040EA0C0050601A680E4882420AD0B2F13F
:10428000804F07D0A0F59430824203D000F58060C3
:10429000824204D124F080044968214391600122C4
:1042A00083F83D20002083F83C0010BC70470220BA
:1042B000704700BF002C014070477047026802F150
:1042C0000C0353E8003F23F490730C3242E80031B2
:1042D0000029F3D1026802F1140353E8003F23F0F0
:1042E0000103143242E800310029F3D1036B012BA2
:1042F00005D0202380F84230002303637047026812
:1043000002F10C0353E8003F23F010030C3242E8A3
:1043100000310029F3D1ECE790F84130DBB2212BDA
:1043200001D0022070478368B3F5805F17D0036A1D
:104330005A1C02621A7803685A60C38C9BB2013B14
:104340009BB2C3844BB90268D36823F08003D36067
:104350000268D36843F04003D360002070470369CC
:10436000002BE4D1036A1B880268C3F3080353607F
:10437000036A02330362E0E710B50446026813697A
:1043800023F44053C1680B431361836802691343EC
:1043900042691A430168CB6823F4B05323F00C033D
:1043A0001343CB600268536923F4407381690B4364
:1043B00053610268134B9A4220D0FFF74FFB02462D
:1043C00002EB820202EB820263689B00B2FBF3F213
:1043D0000D48A0FB02314909642303FB11231B0193
:1043E0003233A0FB03035B0903F0F00202EB01127E
:1043F00003F00F03216813448B6010BDFFF73EFBF1
:104400000246DDE7003801401F85EB512DE9F043FE
:1044100083B005460E4617469946DDF828802B687E
:104420001C6836EA04040CBF01240024BC4228D1D5
:10443000B8F1FF3FF3D0FDF715FFA0EB09004045B1
:1044400023D8B8F1000F22D02B68DA6812F0040FDD
:10445000E5D0802EE3D0402EE1D01A6812F0080F8C
:10446000DDD0002401941A6801925B680193019BDE
:104470002846FFF723FF08236B6485F8404001209E
:1044800000E0002003B0BDE8F0830320FAE703203A
:10449000F8E760B310B5044690F8413013B3242315
:1044A00084F841302268D36823F40053D360204657
:1044B000FFF762FF2268136923F4904313612268B7
:1044C000536923F02A0353612268D36843F40053ED
:1044D000D36000206064202384F8413084F84230A7
:1044E000606310BD80F84030FDF7FEFDD7E7012086
:1044F00070472DE9F04182B01E4690F84130DBB2A2
:10450000202B56D104460D469046002955D00AB9B5
:1045100001204FE000234364212380F84130FDF760
:10452000A1FE0746A4F82480A4F82680A368B3F56A
:10453000805F02D04FF0000814E023692BB34FF0E6
:1045400000080FE0202384F84130032032E038F8DF
:10455000023B2268C3F308035360E28C92B2013A33
:1045600092B2E284E38C9BB293B100963B46002268
:1045700080212046FFF74AFF0028E3D1002DE6D036
:1045800015F8012B23685A60E7E7A8460025E9E7FC
:1045900000963B46002240212046FFF737FF18B91E
:1045A000202384F8413005E0202384F841300320A3
:1045B00000E0022002B0BDE8F0810120FAE7704778
:1045C00008B50168CA6822F04002CA60202280F85B
:1045D0004120FFF7F4FF002008BD7047704708B581
:1045E000406A0023C385C384FFF7F8FF08BD704706
:1045F00090F84230DBB2222B69D18368B3F5805F3B
:104600004FD0826AB3F5805F04D0002B56D1036986
:10461000002B53D103685B681370836A0133836294
:10462000C38D9BB2013B9BB2C385002B51D100B51A
:1046300083B00268D36823F02003D3600268D36894
:1046400023F48073D3600268536923F0010353613C
:10465000202380F8423000234363036B012B33D1C6
:1046600000230363026802F10C0353E8003F23F0C8
:1046700010030C3242E800310029F3D103681A68B4
:1046800012F0100F06D0002201921A6801925B68A6
:104690000193019B818DFFF7AAFF002003B05DF815
:1046A00004FB0269002AACD1826A03685B68C3F329
:1046B00008031380836A02338362B1E703685B688F
:1046C00003F07F031370A8E7FFF787FFE5E70220F9
:1046D000704700207047000010B582B004460268A1
:1046E0001368D068516913F00F0F09D113F0200F30
:1046F0000CD010F0200F09D02046FFF779FF16E00C
:1047000011F0010115D110F4907F12D1216B012914
:1047100079D013F0800F03D010F0800F40F0138198
:1047200013F0400F03D010F0400F40F0108102B0A2
:1047300010BD13F0010F06D010F4807F03D0626C1F
:1047400042F00102626413F0040F04D019B1626CEC
:1047500042F00202626413F0020F04D019B1626CDD
:1047600042F00402626413F0080F07D010F0200F2B
:1047700000D119B1626C42F008026264626C002AD6
:10478000D5D013F0200F02D010F0200F29D12368CC
:104790005B6903F04003626C12F0080F00D163B351
:1047A0002046FFF78BFD23685B6913F0400F20D094
:1047B000226802F1140353E8003F23F0400314324F
:1047C00042E800310029F3D1E36B73B1624A5A63C6
:1047D000E06BFDF7FDFD0028A9D0E06B436B984727
:1047E000A5E72046FFF704FFD1E72046FFF7F6FED6
:1047F0009DE72046FFF7F2FE99E72046FFF7EEFE21
:104800000023636493E713F0100F82D010F0100FB1
:104810003FF47FAF00230193136801935368019322
:10482000019B536913F0400F51D0E26B13685B6832
:104830009BB2002B3FF47BAFA18D99427FF677AFFF
:10484000E3859369202B37D0226802F10C0353E8EB
:10485000003F23F480730C3242E800310029F3D189
:10486000226802F1140353E8003F23F001031432DD
:1048700042E800310029F3D1226802F1140353E821
:10488000003F23F04003143242E800310029F3D105
:10489000202384F8423000232363226802F10C03B2
:1048A00053E8003F23F010030C3242E800310029A6
:1048B000F3D1E06BFDF768FD02236363A18DE38D07
:1048C0009BB2C91A89B22046FFF791FE2FE7A18D4E
:1048D000E38D9BB2C91A89B2E38D9BB2002B3FF4E2
:1048E00026AF00293FF423AF226802F10C0353E8FE
:1048F000003F23F490730C3242E800300028F3D1DB
:10490000226802F1140353E8003F23F0010314323C
:1049100042E800300028F3D1202384F842300023FD
:104920002363226802F10C0353E8003F23F01003D5
:104930000C3242E800300028F3D1022363632046A2
:10494000FFF755FEF3E62046FFF7E6FCEFE62046CC
:10495000FFF736FEEBE600BFDF4500082DE9F84F14
:1049600083468A46904607464FF0000920E0B8FA91
:1049700088F252092946384601F010F976080135C7
:10498000EDB20134E4B2072C08D816F0010FEED0D6
:1049900042462946384601F001F9EFE70137FFB2F8
:1049A000A7EB0B03082B0CD009F101095FFA89F979
:1049B000B9F10F0F0BD8074B13F8096055460024C7
:1049C000E1E70AF1080A5FFA8AFA5F46ECE7BDE818
:1049D000F88F00BF3000002010B582B00124009491
:1049E000002350221946184601F0FCF800942E23AB
:1049F00000221146104601F0F5F800942E235022B3
:104A00000021104601F0EEF800942E2350221946A2
:104A1000002001F0E7F8052409E001230093234674
:104A2000502221464D2001F0DDF80534E4B2282C57
:104A3000F3D9012400942E2354221946502001F06A
:104A4000D1F800940823234A2F21512001F0C8F9FE
:104A50000094192354221946502001F0C3F8009401
:104A600008231D4A1B21512001F0BAF900940023AC
:104A700054221946502001F0B5F800940823174A33
:104A80000221512001F0ACF90094102300223021C2
:104A9000104601F01DFA00941023224630211846DA
:104AA00001F016FA0094102302223021202001F098
:104AB0000FFA0094102303223021084601F008FA6F
:104AC0000094102304223021402001F001FA02B0AA
:104AD00010BD00BF68CD000810CD000818CD00083B
:104AE00010B582B00124009410231C4A002108460E
:104AF00001F076F9009440231A461021184601F07F
:104B000071F800941023164A1946002001F068F944
:104B100000941023134A2021002001F061F9009431
:104B20001023114A3021002001F05AF9009410237B
:104B30000E4A1946412001F053F9009410230C4A03
:104B40002021412001F04CF900941023094A302122
:104B5000412001F045F902B010BD00BF20CD000892
:104B600030CD000838CD000840CD000848CD000801
:104B700050CD000858CD000870B582B001240094D3
:104B800010231B220021084601F0A2F900941023F3
:104B90001C220021184601F09BF9364E0194102585
:104BA00000950423327800211E2001F047F900947B
:104BB0002B462D2200213E2001F068F8019400953B
:104BC000022372780021462001F038F900942B4628
:104BD0002D220021562001F059F80194009502235E
:104BE000B27800215E2001F029F900942B461D22A5
:104BF0001821002001F06CF900942B461E22182188
:104C0000284601F065F9019400950223F2781821F5
:104C1000282001F013F900942B463A22182138205D
:104C200001F034F8019400950223327918214020D4
:104C300001F004F900942B463A221821502001F08B
:104C400025F801940095022372791821582001F06B
:104C5000F5F800942B46084A12683021002001F034
:104C6000BFF800942B46054A30216A2001F0B8F8BD
:104C700002B070BD980700209407002060CD0008A6
:104C800010B582B0012400941023052200210846AB
:104C900001F01EF90094102306220021184601F0AD
:104CA00017F90094102307220021202001F010F9A9
:104CB000009410232E220021482000F0E7FF0094EA
:104CC00010230D220021682001F002F90094102326
:104CD00008221946002001F0FBF800941023092255
:104CE0001946184601F0F4F8009410230A221946D8
:104CF000202001F0EDF8009410230B2219463020FB
:104D000001F0E6F8009410230C2219463D2001F032
:104D1000DFF8009410232E221946562000F0B6FF2B
:104D2000009410230E2219466C2001F0D1F8009453
:104D300010230F222021002001F0CAF80094102334
:104D40001A462021184601F0C3F8009410231122BE
:104D50002021084601F0BCF8009410232E222021C7
:104D60004A2000F093FF0094102363222021682042
:104D700000F08CFF009410236D222021702000F0A1
:104D800085FF0094102314223021002001F0A0F8A8
:104D9000009410231A463021184601F099F8009427
:104DA000102311223021202001F092F800941023CA
:104DB0002E2230214A2000F069FF00941023632244
:104DC0003021682000F062FF009410236D22302112
:104DD000702000F05BFF00F093FE02B010BD10B534
:104DE00082B00124009410230F220021084601F014
:104DF0006FF8009410231A460021184601F068F855
:104E00000094102311220021202001F061F8009469
:104E100010232E2200214A2000F038FF0094102396
:104E200063220021682000F031FF009410236D22DE
:104E30000021702000F02AFF00941023142219464C
:104E4000002001F045F8009410231A461946184630
:104E500001F03EF80094102311221946202001F0A1
:104E600037F8009410232E2219464A2000F00EFF36
:104E70000094102363221946682000F007FF009475
:104E800010236D221946702000F000FF00941023BB
:104E900015222021002001F01BF800941023162277
:104EA0002021184601F014F8009410231722202125
:104EB000084601F00DF8009410231822202130201C
:104EC00001F006F8009410230C222021402000F06D
:104ED000FFFF0094102363222021682000F0D6FEFB
:104EE000009410236D222021702000F0CFFE00944A
:104EF000102319223021002000F0EAFF0094102333
:104F00001A223021184600F0E3FF009410231522E6
:104F10003021202000F0DCFF0094102316223021E5
:104F2000084600F0D5FF009410230C2230214020C9
:104F300000F0CEFF00F0E4FD02B010BD10B582B06D
:104F4000013806283AD8DFE810F007003B006E0071
:104F5000A100D40007013A0101240094102320226B
:104F60001946382000F092FE0094102320221146AA
:104F7000382000F08BFE00941023202230213820AE
:104F800000F084FE0094102320221946792000F0BE
:104F90007DFE0094102320221146792000F076FE39
:104FA0000094102320223021792000F06FFE224649
:104FB00000217820FFF7D2FC00F0A2FD02B010BD66
:104FC00001240094102320221146382000F05EFEB8
:104FD0000094102320223021382000F057FE009446
:104FE000102320221946792000F050FE009410234F
:104FF00020221146792000F049FE0094102320223F
:105000003021792000F042FE00941023202200215C
:10501000782000F03BFE224610213820FFF79EFC4E
:1050200000F06EFDCAE701240094102320221946E7
:10503000382000F02BFE009410232022302138204D
:1050400000F024FE0094102320221946792000F05D
:105050001DFE0094102320221146792000F016FE38
:105060000094102320223021792000F00FFE0094BC
:10507000102320220021782000F008FE2246202163
:105080003820FFF76BFC00F03BFD97E7012400940C
:10509000102320221946382000F0F8FD0094102338
:1050A00020221146382000F0F1FD00941023202228
:1050B0001946792000F0EAFD0094102320221146C1
:1050C000792000F0E3FD0094102320223021792084
:1050D00000F0DCFD0094102320220021782000F055
:1050E000D5FD224630213820FFF738FC00F008FDBE
:1050F00064E701240094102320221946382000F090
:10510000C5FD0094102320221146382000F0BEFD7A
:105110000094102320223021382000F0B7FD0094A5
:10512000102320221146792000F0B0FD00941023B6
:1051300020223021792000F0A9FD009410232022A4
:105140000021782000F0A2FD224610217920FFF7EF
:1051500005FC00F0D5FC31E7012400941023202247
:105160001946382000F092FD0094102320221146A9
:10517000382000F08BFD00941023202230213820AD
:1051800000F084FD0094102320221946792000F0BD
:105190007DFD0094102320223021792000F076FD3F
:1051A0000094102320220021782000F06FFD224679
:1051B00020217920FFF7D2FB00F0A2FCFEE60124BB
:1051C0000094102320221946382000F05FFD00943F
:1051D000102320221146382000F058FD009410239F
:1051E00020223021382000F051FD0094102320228D
:1051F0001946792000F04AFD009410232022114620
:10520000792000F043FD0094102320220021782013
:1052100000F03CFD224630217920FFF79FFB00F093
:105220006FFCCBE670B582B01D4D0C2229461D489F
:1052300001F03EFB012601961024009403232A88E6
:105240002146204600F0FAFD0196009403236A8867
:105250002021204600F0F2FD019600940323AA8845
:105260003021204600F0EAFD019600940323EA88ED
:105270002146512000F0E2FD0196009403232A8983
:105280002021512000F0DAFD0196009403236A8961
:105290003021512000F0D2FD00F032FC02B070BD90
:1052A000F808002000F800082DE9F04383B04D4FC6
:1052B0003868FBF797FB4C4E86FB0032C017012580
:1052C0000195102400940323C0EBA212002130208A
:1052D00000F0B4FD3868FBF785FB86FB0023C2179E
:1052E000C2EBA3124FF47A7701950094032307FBD6
:1052F000120200214E2000F0A1FDDFF8F080D8F866
:105300000000FBF76FFBDFF8E89089FB0032C01765
:10531000019500940223C0EB62122146462000F062
:105320008DFDD8F80000FBF75DFB89FB0039C21743
:10533000C2EB6912019500940223642101FB120261
:1053400021465C2000F07AFDDFF8A880D8F8000044
:10535000FBF748FB86FB0032C0170195009403233E
:10536000C0EBA2122021322000F068FDD8F8000026
:10537000FBF738FB86FB0023C217C2EBA312019593
:105380000094032307FB12022021502000F056FD59
:10539000DFF86480D8F80000FBF724FB86FB0032BE
:1053A000C017019500940323C0EBA21230213220D4
:1053B00000F044FDD8F80000FBF714FB86FB003634
:1053C000C217C2EBA61201950094032307FB120239
:1053D0003021502000F032FD00F092FB03B0BDE818
:1053E000F08300BFC4070020D34D6210C007002027
:1053F0001F85EB51B4070020B00700202DE9F041D4
:1054000082B02C4F3868FBF7EDFA2B4D85FB00324C
:10541000C01701260196102400940323C0EBA212AA
:105420000021322000F00AFD3868FBF7DBFA85FB2B
:105430000023C217C2EBA3124FF47A7701960094AF
:10544000032307FB12020021502000F0F7FCDFF8D5
:105450006C80D8F80000FBF7C5FA85FB0032C01756
:10546000019600940323C0EBA2122146322000F0E3
:10547000E5FCD8F80000FBF7B5FA85FB0035C2174C
:10548000C2EBA51201960094032307FB12022146EA
:10549000502000F0D3FC019600940323084A1268C0
:1054A0002021502000F0CAFC00F02AFB02B0BDE829
:1054B000F08100BFB4070020D34D6210B007002078
:1054C0001C00002010B582B00C460130C0B201387B
:1054D00006280FD8DFE800F004121D28333E4900EB
:1054E000012300931023224A1946002000F078FC83
:1054F0000023238000F004FB02B010BD01230093C1
:1055000010231C4A2021002000F06AFC0023638045
:10551000F0E7012300931023174A3021002000F008
:105520005FFC0023A380E5E7012300931023134AC7
:105530001946412000F054FC0023E380DAE7012300
:10554000009310230E4A2021412000F049FC002343
:105550002381CFE70123009310230A4A3021412001
:1055600000F03EFC00236381C4E700238B81C1E788
:1055700064CD00086CCD000874CD00087CCD000817
:1055800084CD00088CCD000870B506460D464C242D
:105590000BE0315DC1F12D01C4F14D002A46C9B2C5
:1055A000C0B200F0FBFA013CE4B2002CF1D100F0F3
:1055B000A7FA70BD4C2305E0C21812F8012CC254A2
:1055C000013BDBB2002BF7D1704700B50368996946
:1055D0001FFA81FED8699A691FFA82FCE64505D058
:1055E000D86980B240EA02405DF804FB80B240EA2C
:1055F0000140F9E7022917D100F5FA6210F0030F14
:1056000007D10D4B83FB02135B11642101FB1323B4
:1056100073B9094B83FB0213DB114FF4C87101FB13
:1056200013233BB91D2070470139044B585C704768
:105630001D2070471C2070471F85EB5180CF00084C
:1056400038B50446FCF70EFE054623685A6812F08A
:10565000200F07D1FCF706FE401BB0F57A7FF4D986
:10566000032004E05A6842F010025A60002038BD5E
:1056700038B504460268536823F010035360FCF702
:10568000F1FD054623685B6813F0200F07D1FCF796
:10569000E9FD401BB0F57A7FF4D9032000E000203B
:1056A00038BD38B505460C46FFF7CAFF08B10120E2
:1056B00038BD2B68220C9A612B68A4B2DC612846A5
:1056C000FFF7D6FF0028F3D00120F1E70346481E7C
:1056D00001282ED902EB4100013101EB4101234A9F
:1056E00082FB01C2C917C1EB6201084418441A4683
:1056F000002B21DB00EBA2001D4A82FB0312DB170B
:10570000A3EB62110844C3EBE2131844194A82FB6D
:1057100000320244C317C3EBA203C3EBC303C31A93
:105720000133062B1FD8DFE803F0090C0F12151800
:105730001B000C31013BCDE7DA1CDBE70E4B186890
:1057400070470D4B586870470B4B986870470A4B71
:10575000D8687047084B18697047074B58697047FD
:10576000054B986970470020704700BF6766666602
:105770001F85EB5193244992000000202DE9F84346
:105780000246244DA5FB0036770BC6F34736A5FB32
:1057900001356C0BC5F3473542F2107000FB17273B
:1057A0001D4BA3FB07C7C7F3471700FB1414A3FB4C
:1057B0000404C4F34714A3FB02084FEA58186420FA
:1057C00000FB1828A3FB01C35B0900FB13138A42EB
:1057D0001ED8D8B24FF000090DE0BC420DD15FFADF
:1057E00088F8A0EB08004844BDE8F8831C46214631
:1057F0002846FFF7FFFEB542EFD08144631EDBB2BF
:10580000023CE4B20B2CF1D9013DEDB20C24EEE7E1
:105810000020E9E75917B7D11F85EB5110B59DF866
:1058200008C0CCEB0C1C4FEA8C0C4FF4616404FBF9
:1058300003CC9DF80C406444642303FB01F142F265
:10584000107303FB001111446520FFF797FF034914
:1058500001FB00410248FFF724FF10BD8051010009
:10586000D4070020F8B50F461A4BA3FB00235B0BAF
:10587000194CA4FB03256D09642202FB1535EDB21A
:10588000A4FB00135B09A4FB0314640902FB14349A
:10589000E4B202FB1306F6B20FE00C3CE4B20135B1
:1058A000EDB221462846FFF7A5FEF319834207D93A
:1058B000801B3F1A0134E4B200260C2CF1D9ECE72E
:1058C000642202FB04F442F2107202FB0544D8B2D7
:1058D0002044F8BD5917B7D11F85EB51F8B50446E0
:1058E0000E4617461D462548FFF76FFE2449A1FBCB
:1058F0000031090C1DB3069B0BB3079BFBB1214A7A
:10590000A2FB0032D20A204BA3FB02C31B0903EB0C
:105910004303A2EBC3032B701C4BA3FB00C2520931
:10592000A3FB02C35B09C3EB0313A2EB8303069D36
:105930002B70C2EB0212A0EB8200079B1870E4B13F
:10594000DEB1D7B16520FFF78DFF114AA2FB00320F
:10595000520B104BA3FB02514909642505FB112191
:105960002170A3FB00125209A3FB02135B0905FB84
:105970001323337005FB12003870F8BDD4070020E4
:1059800007452EC2C5B3A291ABAAAAAA8988888866
:105990005917B7D11F85EB51F0B587B0144B9A69F1
:1059A00042F004029A619B6903F004030193019B96
:1059B00002270297012503950023049303230593EF
:1059C0000C4C02A92046FCF73DFE0426029602A9D3
:1059D0002046FCF737FE2A4639462046FCF747FFAB
:1059E0002A4631462046FCF742FF07B0F0BD00BF13
:1059F000001002400008014010B50B4C01220421A8
:105A00002046FCF734FF012202212046FCF72FFF3D
:105A1000002204212046FCF72AFF00220221204612
:105A2000FCF725FF10BD00BF0008014010B5084C71
:105A3000002204212046FCF71AFF01220221204601
:105A4000FCF715FF012204212046FCF710FF10BDD2
:105A50000008014010B5084C012204212046FCF743
:105A600006FF012202212046FCF701FF002202214D
:105A70002046FCF7FCFE10BD0008014070B504464E
:105A8000002513E0002204210E48FCF7F0FE0D4E25
:105A9000012202213046FCF7EAFE002202213046B4
:105AA000FCF7E5FE6400E4B20135EDB2072D08D83D
:105AB00014F0800FE6D0012204210248FCF7D7FE43
:105AC000E5E770BD0008014038B504460D46FFF714
:105AD00093FF7820FFF7D2FFFFF7BCFF65B14020AE
