:020000040800F2
:1000000000500020B1200008F9180008FB18000873
:10001000FD180008FF180008011900080000000082
:1000200000000000000000000000000003190008AC
:100030000519000800000000071900080919000848
:10004000F9200008F9200008F9200008F92000082C
:10005000F9200008F9200008F9200008F92000081C
:10006000F9200008F920000811190008F9200008FB
:10007000F9200008F9200008F9200008F9200008FC
:10008000F9200008F9200008F9200008F9200008EC
:10009000F9200008F9200008F92000084D1900088F
:1000A000F920000889190008F9200008F920000843
:1000B000BD190008F9200008F9200008F9200008FF
:1000C000F9200008F9200008F9200008F9200008AC
:1000D000F9200008E5190008F9200008F9200008B7
:1000E000F5190008F9200008F920000800000000B8
:1000F0000000000000000000000000000000000000
:0C01000000000000000000005FF808F1A3
:1001100081F0004102E000BF83F0004330B54FEAB8
:1001200041044FEA430594EA050F08BF90EA020F25
:100130001FBF54EA000C55EA020C7FEA645C7FEAB8
:10014000655C00F0E2804FEA5454D4EB5555B8BFDB
:100150006D420CDD2C4480EA020281EA030382EA4C
:10016000000083EA010180EA020281EA0303362DDE
:1001700088BF30BD11F0004F4FEA01314FF4801CB1
:100180004CEA113102D0404261EB410113F0004FC3
:100190004FEA03334CEA133302D0524263EB43037A
:1001A00094EA050F00F0A780A4F10104D5F1200E18
:1001B0000DDB02FA0EFC22FA05F2801841F1000173
:1001C00003FA0EF2801843FA05F359410EE0A5F147
:1001D00020050EF1200E012A03FA0EFC28BF4CF078
:1001E000020C43FA05F3C01851EBE37101F000452E
:1001F00007D54FF0000EDCF1000C7EEB00006EEB3B
:100200000101B1F5801F1BD3B1F5001F0CD34908C4
:100210005FEA30004FEA3C0C04F101044FEA44521B
:1002200012F5800F80F09A80BCF1004F08BF5FEAA2
:10023000500C50F1000041EB045141EA050130BD82
:100240005FEA4C0C404141EB0101013C28BFB1F594
:10025000801FE9D291F0000F04BF01460020B1FADF
:1002600081F308BF2033A3F10B03B3F120020CDAB2
:100270000C3208DD02F1140CC2F10C0201FA0CF090
:1002800021FA02F10CE002F11402D8BFC2F1200CF5
:1002900001FA02F120FA0CFCDCBF41EA0C019040AB
:1002A000E41AA2BF01EB0451294330BD6FEA0404F4
:1002B0001F3C1CDA0C340EDC04F11404C4F12002DF
:1002C00020FA04F001FA02F340EA030021FA04F3F1
:1002D00045EA030130BDC4F10C04C4F1200220FA48
:1002E00002F001FA04F340EA0300294630BD21FA86
:1002F00004F0294630BD94F0000F83F4801306BF4C
:1003000081F480110134013D4EE77FEA645C18BF3F
:100310007FEA655C29D094EA050F08BF90EA020FD6
:1003200005D054EA000C04BF1946104630BD91EACE
:10033000030F1EBF0021002030BD5FEA545C05D1D1
:100340004000494128BF41F0004130BD14F5800410
:100350003CBF01F5801130BD01F0004545F0FE4184
:1003600041F470014FF0000030BD7FEA645C1ABFB9
:10037000194610467FEA655C1CBF0B46024650EAF0
:10038000013406BF52EA033591EA030F41F400211C
:1003900030BD00BF90F0000F04BF0021704730B5A2
:1003A0004FF4806404F132044FF000054FF0000177
:1003B00050E700BF90F0000F04BF0021704730B538
:1003C0004FF4806404F1320410F0004548BF40420D
:1003D0004FF000013EE700BF42004FEAE2014FEA62
:1003E00031014FEA02701FBF12F07F4393F07F4F3D
:1003F00081F06051704732F07F4208BF704793F040
:100400007F4F04BF41F40021704730B54FF4607452
:1004100001F0004521F000411CE700BF50EA010255
:1004200008BF704730B54FF000050AE050EA0102FE
:1004300008BF704730B511F0004502D5404261EB6E
:1004400041014FF4806404F132045FEA915C3FF4AF
:10045000D8AE4FF003025FEADC0C18BF03325FEA4C
:10046000DC0C18BF033202EBDC02C2F1200300FAFD
:1004700003FC20FA02F001FA03FE40EA0E0021FA22
:1004800002F11444BDE600BF4FEA4102B2F1E0437D
:1004900024BFB3F5001CDCF1FE5C0DD901F0004C6B
:1004A0004FEAC0024CEA5070B2F1004F40EB8300BB
:1004B00008BF20F00100704711F0804F21D113F1E7
:1004C0003872BCBF01F00040704741F480114FEA20
:1004D0005252C2F11802C2F1200C10FA0CF320FAA9
:1004E00002F018BF40F001004FEAC1234FEAD323C6
:1004F00003FA0CFC40EA0C0023FA02F34FEA430330
:10050000CCE77FEA625307D150EA01331EBF4FF0B8
:10051000FE4040F44000704701F0004040F0FE40D3
:1005200040F40000704700BF80F0004002E000BFD0
:1005300081F0004142001FBF5FEA410392EA030FCE
:100540007FEA226C7FEA236C6AD04FEA1262D2EB18
:100550001363C1BFD218414048404140B8BF5B421D
:10056000192B88BF704710F0004F40F4000020F0B6
:100570007F4018BF404211F0004F41F4000121F0CC
:100580007F4118BF494292EA030F3FD0A2F1010216
:1005900041FA03FC10EB0C00C3F1200301FA03F154
:1005A00000F0004302D5494260EB4000B0F5000F77
:1005B00013D3B0F1807F06D340084FEA310102F136
:1005C0000102FE2A51D2B1F1004F40EBC25008BFE8
:1005D00020F0010040EA03007047490040EB0000B2
:1005E000013A28BFB0F5000FEDD2B0FA80FCACF1B3
:1005F000080CB2EB0C0200FA0CF0AABF00EBC250E0
:1006000052421843BCBFD0401843704792F0000FCD
:1006100081F4000106BF80F400000132013BB5E720
:100620004FEA41037FEA226C18BF7FEA236C21D096
:1006300092EA030F04D092F0000F08BF08467047FB
:1006400090EA010F1CBF0020704712F07F4F04D1C9
:10065000400028BF40F00040704712F100723CBFDC
:1006600000F50000704700F0004343F0FE4040F406
:10067000000070477FEA226216BF08467FEA2363C4
:100680000146420206BF5FEA412390EA010F40F4AF
:10069000800070474FF0000304E000BF10F00043FB
:1006A00048BF40425FEA000C08BF704743F09643E2
:1006B00001464FF000001CE050EA010208BF7047FD
:1006C0004FF000030AE000BF50EA010208BF704784
:1006D00011F0004302D5404261EB41015FEA010C99
:1006E00002BF84460146002043F0B64308BFA3F191
:1006F0008053A3F50003BCFA8CF2083AA3EBC25373
:1007000010DB01FA02FC634400FA02FCC2F1200291
:10071000BCF1004F20FA02F243EB020008BF20F0C8
:100720000100704702F1200201FA02FCC2F120022E
:1007300050EA4C0021FA02F243EB020008BF20EA23
:10074000DC7070474FF0FF0C1CEAD0521EBF1CEA51
:10075000D15392EA0C0F93EA0C0F6FD01A4480EA3F
:10076000010C400218BF5FEA41211ED04FF0006328
:1007700043EA501043EA5111A0FB01310CF0004054
:10078000B1F5000F3EBF490041EAD3715B0040EA7A
:10079000010062F17F02FD2A1DD8B3F1004F40EB4A
:1007A000C25008BF20F00100704790F0000F0CF01D
:1007B000004C08BF49024CEA502040EA51207F3AE1
:1007C000C2BFD2F1FF0340EAC250704740F40000BC
:1007D0004FF00003013A5DDC12F1190FDCBF00F0AD
:1007E00000407047C2F10002410021FA02F1C2F15B
:1007F000200200FA02FC5FEA310040F1000053EAF7
:100800004C0308BF20EADC70704792F0000F00F044
:10081000004C02BF400010F4000F013AF9D040EA4A
:100820000C0093F0000F01F0004C02BF490011F4DE
:10083000000F013BF9D041EA0C018FE70CEAD153DC
:1008400092EA0C0F18BF93EA0C0F0AD030F0004C5C
:1008500018BF31F0004CD8D180EA010000F0004010
:10086000704790F0000F17BF90F0004F084691F0CE
:10087000000F91F0004F14D092EA0C0F01D1420208
:100880000FD193EA0C0F03D14B0218BF084608D1D1
:1008900080EA010000F0004040F0FE4040F400001B
:1008A000704740F0FE4040F4400070474FF0FF0CAE
:1008B0001CEAD0521EBF1CEAD15392EA0C0F93EAF5
:1008C0000C0F69D0A2EB030280EA010C49024FEA47
:1008D000402037D04FF0805343EA111143EA101300
:1008E0000CF000408B4238BF5B0042F17D024FF4B8
:1008F000000C8B4224BF5B1A40EA0C00B3EB510F93
:1009000024BFA3EB510340EA5C00B3EB910F24BF7B
:10091000A3EB910340EA9C00B3EBD10F24BFA3EB00
:10092000D10340EADC001B0118BF5FEA1C1CE0D1C8
:10093000FD2A3FF650AF8B4240EBC25008BF20F07B
:10094000010070470CF0004C4CEA50207F32C2BFCF
:10095000D2F1FF0340EAC250704740F400004FF06C
:100960000003013A37E792F0000F00F0004C02BF9D
:10097000400010F4000F013AF9D040EA0C0093F067
:10098000000F01F0004C02BF490011F4000F013BC1
:10099000F9D041EA0C0195E70CEAD15392EA0C0F29
:1009A00008D142027FF47DAF93EA0C0F7FF470AF61
:1009B000084676E793EA0C0F04D14B023FF44CAFA4
:1009C00008466EE730F0004C18BF31F0004CCAD139
:1009D00030F000427FF45CAF31F000437FF43CAF75
:1009E0005FE700BF4FF0FF3C06E000BF4FF0010C97
:1009F00002E000BF4FF0010C4DF804CD4FEA400279
:100A00004FEA41037FEA226C18BF7FEA236C11D0C2
:100A100001B052EA530C18BF90EA010F58BFB2EB75
:100A2000030088BFC81738BF6FEAE17018BF40F0F5
:100A3000010070477FEA226C02D15FEA402C05D1A9
:100A40007FEA236CE4D15FEA412CE1D05DF8040B2E
:100A5000704700BF844608466146FFE70FB5FFF7C1
:100A6000C9FF002848BF10F1000F0FBD4DF808ED79
:100A7000FFF7F4FF0CBF012000205DF808FB00BF6A
:100A80004DF808EDFFF7EAFF34BF012000205DF8C4
:100A900008FB00BF4DF808EDFFF7E0FF94BF012011
:100AA00000205DF808FB00BF4DF808EDFFF7D2FF0E
:100AB00094BF012000205DF808FB00BF4DF808ED51
:100AC000FFF7C8FF34BF012000205DF808FB00BF1E
:100AD0004FEA4002B2F1FE4F0FD34FF09E03B3EB4B
:100AE00012620DD94FEA002343F0004310F0004F8B
:100AF00023FA02F018BF404270474FF000007047E1
:100B000012F1610F01D1420205D110F0004008BF7F
:100B10006FF0004070474FF00000704742000ED267
:100B2000B2F1FE4F0BD34FF09E03B3EB126209D428
:100B30004FEA002343F0004323FA02F070474FF0DE
:100B40000000704712F1610F01D1420202D14FF053
:100B5000FF3070474FF00000704700BF844641EA05
:100B6000000313F0030349D1403A23D30B68036019
:100B70004B6843608B688360CB68C3600B6903611B
:100B80004B6943618B698361CB69C3610B6A036203
:100B90004B6A43628B6A8362CB6AC3620B6B0363EB
:100BA0004B6B43638B6B8363CB6BC36340304031D0
:100BB000403ADBD230320BD30B6803604B684360A2
:100BC0008B688360CB68C36010301031103AF3D269
:100BD0000C3205D351F8043B40F8043B043AF9D2F7
:100BE000043208D0D2071CBF11F8013B00F8013BCA
:100BF00001D30B8803806046704700BF082A13D3D7
:100C00008B07B1D010F00303AED0C3F10403D21AA6
:100C1000DB071CBF11F8013B00F8013BA4D331F8FE
:100C2000023B20F8023B9FE7043AD9D3013A11F87E
:100C3000013B00F8013BF9D20B7803704B7843700D
:100C40008B7883706046704770B54FF0FF0C4CF4A2
:100C5000E06C1CEA11541DBF1CEA135594EA0C0FFA
:100C600095EA0C0F00F0DEF82C4481EA030621EA35
:100C70004C5123EA4C5350EA013518BF52EA033570
:100C800041F4801143F4801338D0A0FB02CE4FF022
:100C90000005E1FB02E506F00042E0FB03E54FF052
:100CA0000006E1FB03569CF0000F18BF4EF0010E4A
:100CB000A4F1FF04B6F5007F64F5407404D25FEA46
:100CC0004E0E6D4146EB060642EAC62141EA5551F9
:100CD0004FEAC52040EA5E504FEACE2EB4F1FD0C3B
:100CE00088BFBCF5E06F1ED8BEF1004F08BF5FEAB9
:100CF000500E50F1000041EB045170BD06F000466B
:100D000046EA010140EA020081EA0301B4EB5C0417
:100D1000C2BFD4EB0C0541EA045170BD41F480110F
:100D20004FF0000E013C00F3AB8014F1360FDEBF34
:100D3000002001F0004170BDC4F10004203C35DA10
:100D40000C341BDC04F11404C4F1200500FA05F393
:100D500020FA04F001FA05F240EA020001F0004234
:100D600021F0004110EBD37021FA04F642EB0601AA
:100D70005EEA430E08BF20EAD37070BDC4F10C04D4
:100D8000C4F1200500FA04F320FA05F001FA04F298
:100D900040EA020001F0004110EBD37041F1000184
:100DA0005EEA430E08BF20EAD37070BDC4F120058F
:100DB00000FA05F24EEA020E20FA04F301FA05F2F7
:100DC00043EA020321FA04F001F0004121FA04F29F
:100DD00020EA020000EBD3705EEA430E08BF20EA6F
:100DE000D37070BD94F0000F0FD101F000464000A9
:100DF00041EB010111F4801F08BF013CF7D041EA2B
:100E0000060195F0000F18BF704703F0004652002E
:100E100043EB030313F4801F08BF013DF7D043EAFF
:100E20000603704794EA0C0F0CEA135518BF95EAB5
:100E30000C0F0CD050EA410618BF52EA4306D1D13C
:100E400081EA030101F000414FF0000070BD50EA5B
:100E5000410606BF1046194652EA430619D094EAE5
:100E60000C0F02D150EA013613D195EA0C0F05D1CF
:100E700052EA03361CBF104619460AD181EA030123
:100E800001F0004141F0FE4141F470014FF00000DB
:100E900070BD41F0FE4141F4780170BD70B54FF076
:100EA000FF0C4CF4E06C1CEA11541DBF1CEA1355F6
:100EB00094EA0C0F95EA0C0F00F0A7F8A4EB0504D8
:100EC00081EA030E52EA03354FEA013100F08880CF
:100ED0004FEA03334FF0805545EA131343EA126398
:100EE0004FEA022245EA111545EA10654FEA00264D
:100EF0000EF000419D4208BF964244F1FD0404F506
:100F0000407402D25B084FEA3202B61A65EB030561
:100F10005B084FEA32024FF480104FF4002CB6EB1E
:100F2000020E75EB030E22BFB61A754640EA0C009E
:100F30005B084FEA3202B6EB020E75EB030E22BFDE
:100F4000B61A754640EA5C005B084FEA3202B6EB1F
:100F5000020E75EB030E22BFB61A754640EA9C00DE
:100F60005B084FEA3202B6EB020E75EB030E22BFAE
:100F7000B61A754640EADC0055EA060E18D04FEA6C
:100F8000051545EA16754FEA06164FEAC30343EA0C
:100F900052734FEAC2025FEA1C1CC0D111F4801FD9
:100FA0000BD141EA00014FF000004FF0004CB6E7D2
:100FB00011F4801F04BF01430020B4F1FD0C88BF71
:100FC000BCF5E06F3FF6AFAEB5EB030C04BFB6EB7C
:100FD000020C5FEA500C50F1000041EB045170BD6F
:100FE0000EF0004E4EEA113114EB5C04C2BFD4EB9C
:100FF0000C0541EA045170BD41F480114FF0000E20
:10100000013C90E645EA060E8DE60CEA135594EA9B
:101010000C0F08BF95EA0C0F3FF43BAF94EA0C0F9E
:101020000AD150EA01347FF434AF95EA0C0F7FF413
:1010300025AF104619462CE795EA0C0F06D152EA67
:1010400003353FF4FDAE1046194622E750EA41064B
:1010500018BF52EA43067FF4C5AE50EA41047FF45C
:101060000DAF52EA43057FF4EBAE12E74FF0FF3CC1
:1010700006E000BF4FF0010C02E000BF4FF0010C92
:101080004DF804CD4FEA410C7FEA6C5C4FEA430C0B
:1010900018BF7FEA6C5C1BD001B050EA410C0CBF5A
:1010A00052EA430C91EA030F02BF90EA020F0020BC
:1010B000704710F1000F91EA030F58BF994208BF23
:1010C00090422CBFD8176FEAE37040F001007047E0
:1010D0004FEA410C7FEA6C5C02D150EA013C07D137
:1010E0004FEA430C7FEA6C5CD6D152EA033CD3D082
:1010F0005DF8040B704700BF8446104662468C467C
:101100001946634600E000BF01B5FFF7B7FF0028AE
:1011100048BF10F1000F01BD4DF808EDFFF7F4FFD7
:101120000CBF012000205DF808FB00BF4DF808ED62
:10113000FFF7EAFF34BF012000205DF808FB00BF85
:101140004DF808EDFFF7E0FF94BF012000205DF8A7
:1011500008FB00BF4DF808EDFFF7CEFF94BF01205C
:1011600000205DF808FB00BF4DF808EDFFF7C4FF55
:1011700034BF012000205DF808FB00BF4FEA410C9E
:101180007FEA6C5C02D150EA013C0AD14FEA430C81
:101190007FEA6C5C02D152EA033C02D14FF00000BE
:1011A00070474FF0010070474FEA410212F50012FC
:1011B00015D211D56FF47873B3EB625212D94FEA9E
:1011C000C12343F0004343EA505311F0004F23FA88
:1011D00002F018BF404270474FF00000704750EADD
:1011E000013005D111F0004008BF6FF0004070479A
:1011F0004FF00000704700BF0348044B834202D009
:10120000034B03B118477047FC060020FC06002082
:10121000000000000548064B1B1AD90F01EBA30183
:10122000491002D0034B03B118477047FC06002059
:10123000FC0600200000000010B5064C237843B9DE
:10124000FFF7DAFF044B13B10448AFF3008001232A
:10125000237010BD000700200000000024BE00081D
:1012600008B5054B1BB105490548AFF30080BDE843
:101270000840FFF7CFBF00BF0000000004070020B8
:1012800024BE00082DE9F04389B00024049405949D
:1012900006940794554B9A6942F020029A619A6924
:1012A00002F020020192019A9A6942F004029A61C6
:1012B0009A6902F004020292029A9A6942F00802C4
:1012C0009A619B6903F008030393039B484E2246EF
:1012D0009E21304601F05BFA464F224640F2034120
:1012E000384601F054FA01224FF44071384601F0BB
:1012F0004EFA862304930125059506944FF00309C1
:10130000CDF81C9004A9304601F02CF90823049371
:10131000059506954FF00208CDF81C8004A93046CB
:1013200001F020F910230493112305930695CDF8BD
:101330001C8004A9304601F015F940F203330493F0
:1013400005950694CDF81C9004A9384601F00AF9D9
:101350004FF48063049305950694CDF81C8004A98E
:10136000384601F0FFF84FF40069CDF8109005946D
:10137000069404A9384601F0F5F845F230030493C9
:10138000DFF87480CDF81480069504A9384601F082
:10139000E9F8CDF81090CDF81480069504A93046F0
:1013A00001F0E0F84FF4004304930594069504A976
:1013B000304601F0D7F8224621460A2000F042FFCD
:1013C0000A2000F04FFF22462146172000F03AFF86
:1013D000172000F047FF22462146282000F032FF68
:1013E000282000F03FFF09B0BDE8F0830010024064
:1013F00000080140000C01400000211008B507481A
:10140000074B03600323436040F6FF73836001F0E2
:10141000D3F900B908BD00F005F8FBE71C07002070
:101420000030004072B6FEE700B591B028220021DE
:1014300006A804F0BFFD00230193029303930493D5
:101440000593092306934FF48033079301220A92F0
:101450000C9202220D920E934FF4E0130F9306A804
:1014600001F0F4F980B90F230193022102910023C6
:1014700003934FF480620492059301A801F018FCD5
:1014800020B911B05DF804FBFFF7CCFFFFF7CAFFEE
:1014900080B582B000F058FE04F0C8F803F04CFDAF
:1014A00003F0E0FD08221146FF2004F06BF803F082
:1014B000E1FBFFF7B9FFFFF7E5FE00F0E5FC00F008
:1014C00089FD00F019FDFFF799FFBE4801F0FAFC15
:1014D000BD4801F0F7FC02F087FB38E0BB4804F0A0
:1014E0009BFBBB4801F096F923E1BA4C94F84B30D2
:1014F0002370204603F096F80121204603F07CF883
:101500000021204603F078F8012601960825009571
:101510000323B14A12883821622003F0E1FA0196D0
:101520000095022322783821572003F0D9FA03F0DE
:1015300039F9A94B1B880133A84A82FB03239B106E
:101540000133A44A82F84B30A14801F063F9F3203B
:1015500004F026FADFF88882C8F80000F52004F0CD
:101560001FFADFF88092C9F8000003F0D3FE974E0F
:10157000706003F019FD9C4D28607068FFF7CEFA8B
:10158000954F3880994CA37862782178984804F078
:101590005BFC63792279E178964804F055FCD9F830
:1015A0000000FEF719FF02460B46934804F04CFC7E
:1015B000D8F80000FEF710FF02460B468F4804F0F3
:1015C00043FC3068FEF708FF02460B468C4804F0E7
:1015D0003BFC7068FEF700FF02460B46894804F0AA
:1015E00033FC3988884804F02FFC2868FEF7F4FEA5
:1015F00002460B46854804F027FCDFF81482D8F831
:101600000010844BA3FB01310022C1F3871101209C
:1016100003F0A2FFD8F800307F4DA5FB03235B0940
:101620007E4CA4FB0321C90801EB8101A3EB41011E
:101630000022C9B2022003F08FFFD8F80030A5FBCA
:1016400003214909642707FB1131A4FB0131002262
:10165000C1F3C701032003F07FFFD8F80030A4FBDB
:101660000321C90801EB8101A3EB41010022C9B2AA
:10167000042003F071FF6A497068FFF763F8FFF711
:1016800027FA684B186085FB0035C317C3EB651557
:10169000654B1D6007FB1505644B1D6042F20F731F
:1016A000984205DD604B63221A60604B00221A608D
:1016B0005D4D2968494C84FB0123C917C1EBA30187
:1016C0000022C9B2052003F047FF2B6884FB0312F8
:1016D000D917C1EBA20101EB8101A3EB410101226A
:1016E000C9B2062003F038FF504D296884FB01235E
:1016F000C917C1EBA3010022C9B2072003F02CFFD8
:101700002B6884FB0324D917C1EBA40101EB8101F1
:10171000A3EB41010022C9B2082003F01DFF3C4B9E
:101720001B68642202FB03F33E4A12689342BFF433
:10173000D5AE3F492A4B1868FFF704F83D4B1860B7
:101740003749284B1868FEF7FDFF3B4B18601F4CCC
:1017500037492068FEF7F6FF384B18603449606857
:10176000FEF7F0FF364B1860364B1B782B4AA2FB76
:10177000031202F0FC0101EB92029B1ADBB2042B74
:101780003FF6D7AE01A252F823F000BF8718000839
:10179000BD17000849180008EB140008A11700083D
:1017A000012301931023009303230B4A1288002185
:1017B000502003F095F902F0F5FFBAE602F0ACFD17
:1017C000B7E600BFC40700207C0700204C070020BC
:1017D0001C07002084080020340700206766666626
:1017E00064070020600700205C0700202C07002011
:1017F00040BE000854BE000868BE00087CBE000859
:1018000090BE0008A4BE0008B8BE0008CCBE000808
:1018100000000020D34D62101F85EB51CDCCCCCC05
:101820000000C842400700203C0700203807002085
:1018300000007A4458070020540700204807002081
:10184000440700200500002002F010FE164B1B6824
:10185000642202FB03F3154A126893420AD3012360
:101860000093102319223021502003F083F902F055
:1018700099FF5EE60123009310231A2230215020A5
:1018800003F078F9F3E702F0AFF901230193102395
:1018900000930323064A12883021502003F020F9D8
:1018A00002F080FF45E600BF000000204007002056
:1018B0003407002082B00E4B9A6942F001029A610F
:1018C0009A6902F001020092009ADA6942F08052AD
:1018D000DA61DB6903F080530193019B054A536889
:1018E00023F0E06343F00073536002B0704700BF21
:1018F0000010024000000140FEE7FEE7FEE7FEE7C1
:10190000FEE770477047704708B500F02FFC08BD30
:1019100008B50B4B5B6913F0100F03D1102000F0DA
:101920003DFF08BD1021074800F02AFF18B9064AFC
:10193000136801331360024B10225A61EEE700BFB7
:1019400000040140000C01400000002008B50B4BD2
:101950005B6913F0200F03D1202000F01FFF08BDAA
:101960002021074800F00CFF18B9064A1368013B14
:101970001360024B20225A61EEE700BF00040140D1
:10198000000C01400000002008B50A4B1B681A69D2
:1019900012F0010F0AD0DA6812F0010F06D00649E2
:1019A0000A7801320A706FF001021A61014801F0F1
:1019B000DBFA08BDC4070020540D002008B5084B11
:1019C0001B681A6912F0010F06D0DA6812F0010FD5
:1019D00002D06FF001021A61014801F0C5FA08BD9A
:1019E0007C07002008B5024801F0AEFE08BD00BF2C
:1019F0000C08002010B5AA4B5B6913F4805F18D166
:101A0000A74B5B6913F4804F40F0D280A44B5B6915
:101A100013F4006F40F086814FF4006000F0BEFECA
:101A20004FF4805000F0BAFE4FF4804000F0B6FE54
:101A300010BD4FF480519B4800F0A2FE002844D115
:101A4000994B01221A70994B197802F1CC32A2FB02
:101A5000013202F0FC0303EB9203CB1A13F0FF0FE9
:101A600038D0924B1978924AA2FB013202F0FC0363
:101A700003EB9203CB1ADBB2012B36D08B4B1978D8
:101A80008B4AA2FB013202F0FC0303EB9203CB1A58
:101A9000DBB2022B38D0854B1978854AA2FB013284
:101AA00002F0FC0303EB9203CB1ADBB2032B3CD016
:101AB0007E4B1B787E4AA2FB031202F0FC0101EB75
:101AC00092029B1ADBB2042B55D0754B4FF4805217
:101AD0005A6195E7744B00221A700131734B1970EB
:101AE00002F096FE02F004F9BBE76F4B1B78012B66
:101AF000C4D16D4B00221A7001316C4B197002F089
:101B000087FE02F0A4F9B9E7674B1B78012BC2D11D
:101B1000654B00221A700131644B197002F078FE97
:101B200001F092FF02F03EFEB5E75F4B1B78012B00
:101B3000BED100245C4B1C7001315C4B197002F06B
:101B400067FE02F005F80C225A495B4803F0B8FF23
:101B5000234606E0574A32F81310584A22F8131069
:101B60000133052BF6DD02F095FB0120544B187074
:101B700002F01CFA9CE74C4B1B78012BA5D1504B73
:101B80001B78002BA1D0484A002111700133D8B234
:101B90004B4C207002F00AFA2378072B95D90122CA
:101BA000227002F035FE414A1378013313708CE73E
:101BB0004FF480413B4800F0E3FD002843D13A4B0D
:101BC00002221A70394B1978394AA2FB013202F00D
:101BD000FC0303EB9203CB1ADBB2012B38D0334B5F
:101BE0001978334AA2FB013202F0FC0303EB9203A3
:101BF000CB1ADBB2022B34D02C4B19782C4AA2FB27
:101C0000013202F0FC0303EB9203CB1ADBB2032B8D
:101C100036D0264B1B78264AA2FB031202F0FC01A9
:101C200001EB92029B1ADBB2042B4BD01F4B1978AD
:101C30001F4AA2FB013202F0FC0303EB9203CB1A12
:101C4000DBB2042B5BD0164B4FF480425A61DDE6C9
:101C5000154B00221A700139144B197002F0D8FD8F
:101C6000BDE7114B1B78022BC6D10F4B00221A7017
:101C700001390E4B197002F0CBFD02F039F8BBE7C9
:101C8000094B1B78022BC4D1074B00221A70013973
:101C9000064B197002F0BCFD02F0D9F8B9E700BF9D
:101CA00000040140000C01407407002005000020E2
:101CB000CDCCCCCC7808002000F8000868070020C4
:101CC00004000020374B1B78022BAFD1364B1B781A
:101CD000082BABD8334A00211170013BD8B2324CEB
:101CE000207002F063F92378002B9FD12F4A1378DC
:101CF000013B137002F08CFD01F0A6FE96E7294B24
:101D00001B78022B9FD1284B1B78002B9BD1254B96
:101D100000221A700139254B197002F079FD01F08B
:101D200093FE90E74FF40061214800F029FD78B957
:101D30001C4B03221A701D4B1B781E4AA2FB031278
:101D400002F0FC0101EB92029B1ADBB2042B04D0DF
:101D5000194B4FF400625A615EE6124B00221A7072
:101D6000114B1878012816D1062306E05A1E134994
:101D700031F8120021F813001346002BF6DC104B4B
:101D80001A880E4B1A800C220C490E4803F0BCFE38
:101D900002F080FADCE702380849C0B202F0CAFB60
:101DA000F1E700BF740700200400002005000020B8
:101DB00000080140CDCCCCCC0004014068070020D5
:101DC0003407002000F800080120704708B504F02F
:101DD00095F9162303604FF0FF3008BD08B54FF0AA
:101DE000FF31FFF7F3FFFEE770B50C4616460025FE
:101DF00006E0AFF30080214601F8010B01350C46E7
:101E0000B542F6DB304670BD70B50C46164600256F
:101E100004E014F8010B00F03BF90135B542F8DBA2
:101E2000304670BD4FF0FF3070474FF400534B60A9
:101E300000207047012070470020704710B503460E
:101E40000C4A0D490D48006840B10C480068034435
:101E5000521A934206D8094A136010BD0748084C2D
:101E60000460F2E704F04AF90C2303604FF0FF30FE
:101E7000F3E700BF005000200004000078070020B6
:101E8000901400207047000000B587B00023029333
:101E9000039304930593009301931548154A026038
:101EA00047224260836040F2E732C26003614361CF
:101EB000836101F04BF990B94FF48053029302A96A
:101EC0000B4801F07BF968B9002300930193694640
:101ED000074801F0F3F940B907B05DF804FBFFF7DC
:101EE000A1FAE9E7FFF79EFAEEE7FFF79BFAF3E7BF
:101EF000C4070020002C014000B587B000230293E6
:101F00000393049305930093019315484FF0804287
:101F1000026047224260836040F2E732C2600361A0
:101F2000836101F013F990B94FF48053029302A931
:101F30000B4801F043F968B9002300930193694607
:101F4000074801F0BBF940B907B05DF804FBFFF7A3
:101F500069FAE9E7FFF766FAEEE7FFF763FAF3E7F6
:101F60007C07002000B583B00368184A934205D06F
:101F7000B3F1804F15D003B05DF804FB144B9A69A0
:101F800042F400629A619B6903F400630093009B32
:101F900000221146192000F055F9192000F062F9CD
:101FA000E9E703F50433DA6942F00102DA61DB693B
:101FB00003F001030193019B002201211C2000F08A
:101FC00041F91C2000F04EF9D5E700BF002C01407C
:101FD0000010024008B50A480A4B03604FF4E13391
:101FE000436000238360C36003610C22426183610C
:101FF000C36101F086FA00B908BDFFF713FAFBE7E9
:102000000C0800200038014070B586B00023029310
:1020100003930493059302681B4B9A4201D006B0C8
:1020200070BD03F558439A6942F480429A619A69F7
:1020300002F480420092009A9A6942F004029A6186
:102040009B6903F004030193019B4FF40073029317
:1020500002250395032305930C4E02A9304600F098
:1020600081FA4FF48063029300240394049402A93C
:10207000304600F077FA22462946252000F0E2F8A3
:10208000252000F0EFF8CAE70038014000080140C1
:1020900000B583B001904FF0FF33012201A903483E
:1020A00001F05FFA019803B05DF804FB0C08002012
:1020B000FFF7E8FE0B480C490C4A002302E0D45815
:1020C000C4500433C4188C42F9D3094A094C002384
:1020D00001E013600432A242FBD304F015F8FFF7CD
:1020E000D7F9704700000020FC06002038E4000803
:1020F000000700208C140020FEE7000010B5044605
:102100000E4B1A784FF47A73B3FBF2F30C4A106853
:10211000B0FBF3F000F0B4F868B90F2C01D901203E
:102120000AE0002221464FF0FF3000F08BF8054B0B
:102130001C60002000E0012010BD00BF0C0000204A
:10214000080000201000002008B5074A136843F07B
:1021500010031360032000F063F80F20FFF7CEFF99
:10216000FFF7A8FB002008BD00200240034A1168C9
:10217000034B1B780B441360704700BF54080020CA
:102180000C000020014B1868704700BF5408002065
:1021900038B50446FFF7F6FF0546B4F1FF3F02D01D
:1021A000044B1B781C44FFF7EDFF401BA042FAD301
:1021B00038BD00BF0C000020002808DB0901C9B2AF
:1021C00000F1604000F5614080F80013704700F0B6
:1021D0000F000901C9B2014B1954704714ED00E01A
:1021E00000B500F00700C0F1070CBCF1040F28BFD8
:1021F0004FF0040C031D062B0FD9C31E4FF0FF3EFA
:102200000EFA0CF021EA000199400EFA03FE22EAD0
:102210000E0241EA02005DF804FB0023EEE7000035
:10222000074AD36823F4E0631B041B0C000200F48C
:10223000E060034343F0BF6343F40033D36070476F
:1022400000ED00E010B50446054BD868C0F302204D
:10225000FFF7C6FF01462046FFF7AEFF10BD00BFE7
:1022600000ED00E0002807DB00F01F024009012319
:102270009340024A42F82030704700BF00E100E07E
:102280000138B0F1807F0BD24FF0E0235861054A4E
:10229000F02182F823100020986107221A6170470C
:1022A0000120704700ED00E0034690F82120D2B2F3
:1022B000022A06D004228263002280F82020012016
:1022C000704701680A6822F00E020A6001680A6815
:1022D00022F001020A60026CC06B012101FA02F2D5
:1022E000426083F82110002083F82000704700002E
:1022F00008B590F82130DBB2022B03D004238363AE
:10230000012008BD0268136823F00E031360026801
:10231000136823F0010313600368194A934214D031
:10232000143293421FD0143293421ED0143293427F
:102330001ED0143293421ED01432934202D04FF07A
:10234000807203E04FF4801200E001220D4B5A60CE
:10235000012380F82130002380F82030436B6BB1DB
:1023600098470020CDE71022F0E74FF48072EDE7A8
:102370004FF48052EAE74FF48032E7E70020C0E7ED
:102380000800024000000240044B0022DA61044AC7
:10239000136943F00103136101807047580800205E
:1023A00000200240194BDB6813F0100305D0184AD7
:1023B000D36943F00203D3611023144AD26812F0A8
:1023C000040F06D01249CA6942F00102CA6143F003
:1023D00004030E4AD26912F0010F09D00C49CA69F0
:1023E00042F00402CA610949CA6922F00102CA61C5
:1023F00040F20112934202D0044AD3607047034A6C
:10240000D36923F00103D361704700BF002002406D
:10241000580800200A4B1B6913F0800F0BD0084BA3
:10242000084A5A6002F188325A601B6913F0800F23
:1024300003D100207047002070470120704700BF83
:102440000020024023016745034A136943F08003DB
:1024500013610020704700BF0020024038B50446D9
:10246000FFF790FE0546164BDB6813F0010F0AD00C
:10247000B4F1FF3FF7D024B1FFF784FE401BA04228
:10248000F1D903201BE00E4BDB6813F0200F02D0C4
:102490000B4B2022DA600A4BDB6813F0100F0BD1D4
:1024A000074BDB6913F0010F06D1054BDB6813F016
:1024B000040F01D1002002E0FFF774FF012038BDB6
:1024C000002002402DE9F8431E46244B1B7E012BC1
:1024D00041D004460F469046204B01221A764CF21A
:1024E0005030FFF7BBFF034678BB012C08D0022C0D
:1024F00003D04FF004091C4607E04FF00209FAE749
:102500004FF00109F7E70134E4B24C451DD2210137
:10251000C1F12002A1F1200328FA01F106FA02F22A
:10252000114326FA03F3194389B207EB4400FFF77E
:102530002BFF4CF25030FFF791FF094B1D6925F03E
:1025400001051D6103460028DDD0044A00211176F3
:102550001846BDE8F8830223FAE700BF58080020B8
:102560000020024070B582B00024A446A1E07E4D58
:10257000AB4214D00CD8A5F58015AB420FD005F5B1
:102580007025AB420BD0A5F58015AB4210D106E00B
:10259000764DAB4203D005F58035AB4208D18B6850
:1025A000002B50D0012B49D04261082400E0CC68B8
:1025B000BEF1FF0F49D806464FEA8C0233680F255B
:1025C000954023EA050304FA02F2134333604B6893
:1025D00013F0805F6BD0664B9A6942F001029A61FA
:1025E0009B6903F001030193019B4FEA9C02951C38
:1025F000604B53F825600CF00305AD000F23AB4092
:1026000026EA03065C4B984226D003F58063984285
:1026100000F08C8003F58063984200F0898003F518
:102620008063984216D0042317E0CC680434BFE7D7
:10263000CC680834BCE7CC680C34B9E702610824E4
:10264000B6E70024B4E70424B2E7061DACF10802A3
:102650009200B3E7032300E00023AB403343023290
:10266000444D45F822304B6813F4801F62D0434A32
:10267000936843EA0E0393604B6813F4001F5FD026
:102680003E4AD36843EA0E03D3604B6813F4003F1D
:102690005CD03A4A536843EA0E0353604B6813F424
:1026A000803F59D0354A136843EA0E0313600CF19A
:1026B000010C0B6833FA0CF254D0012202FA0CF22E
:1026C00003EA020E32EA0303F1D14B68122B3FF604
:1026D0004EAF122B3FF66CAF01A555F823F000BFAB
:1026E0009F250008AF250008312600084326000872
:1026F000B1250008B1250008B1250008B125000862
:10270000B1250008B1250008B1250008B125000851
:10271000B1250008B1250008B1250008B125000841
:10272000B12500082B26000837260008012394E76E
:10273000022392E7114A936823EA0E0393609BE712
:102740000E4AD36823EA0E03D3609EE70B4A536810
:1027500023EA0E035360A1E7084A136823EA0E0335
:102760001360A4E702B070BD000022100000311019
:102770000010024000000140000801400004014038
:102780008368194201D001207047002070470AB1C8
:1027900001617047090401617047704708B5054B36
:1027A0005B69034200D108BD024B5861FFF7F5FF9A
:1027B000F9E700BF0004014050B338B50446036890
:1027C0004CF6CC421A60036845F255521A60036811
:1027D00042685A60036882689A60FFF7D3FC054636
:1027E0002368DA6812F0030F0DD0FFF7CBFC401B13
:1027F00041F23C339842F3D92368DB6813F0030FAE
:10280000EED0032003E04AF6AA221A60002038BD69
:102810000120704703684AF6AA221A600020704718
:1028200082B0084B1B68084AA2FB03235B0A00FB2B
:1028300003F3019300BF019B5A1E0192002BF9D1B3
:1028400002B0704708000020D34D6210002800F04D
:10285000F18170B582B00446036813F0010F2CD0EB
:10286000994B5B6803F00C03042B1DD0964B5B68FF
:1028700003F00C03082B12D06368B3F5803F41D0FE
:10288000002B55D103F1804303F504331A6822F479
:1028900080321A601A6822F480221A6037E08A4B6C
:1028A0005B6813F4803FE7D0874B1B6813F4003F4D
:1028B00003D06368002B00F0BF81236813F0020F80
:1028C00075D0814B5B6813F00C0F5FD07E4B5B685B
:1028D00003F00C03082B54D02369002B00F08A80EE
:1028E0007A4B01221A60FFF74DFC0546764B1B68B8
:1028F00013F0020F75D1FFF745FC401B0228F5D9F4
:1029000003209EE1704A136843F4803313606368C8
:1029100043B3FFF737FC05466B4B1B6813F4003FCE
:10292000CBD1FFF72FFC401B6428F5D9032088E1A9
:10293000B3F5A02F09D0644B1A6822F480321A60D4
:102940001A6822F480221A60E1E703F18043A3F5BC
:102950003C331A6842F480221A601A6842F48032CA
:102960001A60D4E7FFF70EFC0546574B1B6813F4BB
:10297000003FA2D0FFF706FC401B6428F5D90320D6
:102980005FE1514B5B6813F4803FA5D14E4B1B6850
:1029900013F0020F03D02369012B40F04F814A4A04
:1029A000136823F0F803616943EAC10313602368E5
:1029B00013F0080F33D0A369002B5CD0434B0122E6
:1029C000C3F88024FFF7DEFB05463F4B5B6A13F03C
:1029D000020F21D1FFF7D6FB401B0228F5D90320B7
:1029E0002FE1394A136823F0F803616943EAC10310
:1029F0001360DCE7354B00221A60FFF7C3FB054686
:102A0000314B1B6813F0020FD1D0FFF7BBFB401B0B
:102A10000228F5D9032014E10120FFF701FF236804
:102A200013F0040F00F09680274BDB6913F0805FF2
:102A300034D1254BDA6942F08052DA61DB6903F068
:102A400080530193019B0125214B1B6813F4807F68
:102A500026D0E368012B3DD0002B53D103F18043F6
:102A600003F504331A6A22F001021A621A6A22F08C
:102A700004021A6233E0154B0022C3F88024FFF7EA
:102A800081FB0546104B5B6A13F0020FC7D0FFF7BE
:102A900079FB401B0228F5D90320D2E00025D3E7BB
:102AA0000B4A136843F480731360FFF76BFB064611
:102AB000074B1B6813F4807FCBD1FFF763FB801BB0
:102AC0006428F5D90320BCE0001002400000424217
:102AD000007000405F4A136A43F001031362E36829
:102AE00033B3FFF74FFB06465A4B1B6A13F0020F36
:102AF0002FD1FFF747FB801B41F288339842F3D96F
:102B000003209EE0052B09D0524B1A6A22F00102E5
:102B10001A621A6A22F004021A62E0E74D4B1A6A3E
:102B200042F004021A621A6A42F001021A62D6E7FF
:102B3000FFF728FB0646474B1B6A13F0020F08D02D
:102B4000FFF720FB801B41F288339842F3D9032022
:102B500077E0E5B9E369002B72D03E4A526802F093
:102B60000C02082A56D0022B17D03B4B00221A66C3
:102B7000FFF708FB0446374B1B6813F0007F47D074
:102B8000FFF700FB001B0228F5D9032059E0314A6A
:102B9000D36923F08053D361DCE72F4B00221A6600
:102BA000FFF7F0FA05462B4B1B6813F0007F06D0A9
:102BB000FFF7E8FA401B0228F5D9032041E0236A19
:102BC000B3F5803F1AD023494B6823F47413226A6B
:102BD000606A024313434B601F4B01221A66FFF7E2
:102BE000D1FA04461B4B1B6813F0007F0ED1FFF790
:102BF000C9FA001B0228F5D9032022E0154A5368C0
:102C000023F40033A1680B435360DCE7002018E095
:102C1000002016E0012B16D00E4B5B6803F48031C8
:102C2000226A914211D103F47013626A93420ED169
:102C3000002006E001207047012002E0012000E0B2
:102C4000002002B070BD0120FBE70120F9E7012060
:102C5000F7E700BF00100240000042420F4B5B68E4
:102C600003F00C02082A01D00D487047C3F38342D9
:102C70000C49885C13F4803F0BD0084B5B68C3F3AE
:102C80004043094AD35C064A02FB00F0B0FBF3F074
:102C90007047064B03FB00F0704700BF0010024076
:102CA00000127A0040C100083CC1000800093D0044
:102CB000002800F0A08070B50D460446524B1B68FA
:102CC00003F007038B420BD24F4A136823F007032C
:102CD0000B431360136803F007038B4240F08D80B1
:102CE000236813F0020F17D013F0040F04D0474AE3
:102CF000536843F4E0635360236813F0080F04D073
:102D0000424A536843F460535360404A536823F087
:102D1000F003A1680B435360236813F0010F31D017
:102D20006368012B20D0022B25D0384A126812F09C
:102D3000020F64D035494A6822F0030213434B6006
:102D4000FFF720FA0646314B5B6803F00C0362681C
:102D5000B3EB820F16D0FFF715FA801B41F28833D0
:102D60009842F0D9032045E0284A126812F4003F47
:102D7000E0D101203EE0254A126812F0007FD9D14F
:102D8000012037E0204B1B6803F00703AB420AD950
:102D90001D4A136823F007032B431360136803F0E5
:102DA0000703AB422DD1236813F0040F06D0174A56
:102DB000536823F4E063E1680B435360236813F026
:102DC000080F07D0114A536823F46053216943EA7E
:102DD000C1035360FFF742FF0C4B5B68C3F303135F
:102DE0000B4AD35CD8400B4B18600B4B1868FFF7AD
:102DF00085F9002070BD012070470120FAE701200D
:102E0000F8E70120F6E700BF002002400010024072
:102E10002CC100080800002010000020014B186899
:102E2000704700BF0800002008B5FFF7F7FF044B0C
:102E30005B68C3F30223034AD35CD84008BD00BFDC
:102E40000010024024C1000808B5FFF7E7FF044B5B
:102E50005B68C3F3C223034AD35CD84008BD00BFFC
:102E60000010024024C1000810B4036A046A24F070
:102E700001040462846924F0F00C4CEA021223F08D
:102E80000A030B438261036210BC704710B4036AEB
:102E9000046A24F010040462846924F4704C4CEA3F
:102EA000023223F0A00343EA01138261036210BCE3
:102EB0007047836823F070030B4343F0070383607C
:102EC0007047000090F83D30DBB2012B27D1022380
:102ED00080F83D300268D36843F00103D360036893
:102EE000114A934210D0B3F1804F0DD0A2F5943225
:102EF000934209D002F58062934205D01A6842F0ED
:102F000001021A60002070479A6802F00702062A40
:102F100007D01A6842F001021A60002070470120B1
:102F200070470020704700BF002C01400268D36842
:102F300023F00103D3600368196A41F211121142B0
:102F400008D1196A40F24442114203D11A6822F0B2
:102F500001021A60012380F83D300020704770475D
:102F6000704770477047704770B504460368DE6865
:102F70001D6915F0020F10D016F0020F0DD06FF082
:102F800002021A610123037703689B6913F0030FA0
:102F90005ED0FFF7E6FF0023237715F0040F12D071
:102FA00016F0040F0FD023686FF004021A61022399
:102FB000237723689B6913F4407F4FD02046FFF7A7
:102FC000D0FF0023237715F0080F12D016F0080F5A
:102FD0000FD023686FF008021A6104232377236857
:102FE000DB6913F0030F40D02046FFF7BAFF002340
:102FF000237715F0100F12D016F0100F0FD02368A2
:103000006FF010021A61082323772368DB6913F439
:10301000407F31D02046FFF7A4FF0023237715F02F
:10302000010F02D016F0010F2DD115F0800F02D044
:1030300016F0800F2FD115F0400F02D016F0400F80
:1030400031D115F0200F02D016F0200F33D170BD12
:10305000FFF786FF2046FFF785FF9CE72046FFF736
:103060007FFF2046FFF77EFFABE72046FFF778FFA4
:103070002046FFF777FFBAE72046FFF771FF2046AB
:10308000FFF770FFC9E723686FF001021A6120465D
:10309000FFF765FFC9E723686FF080021A612046D9
:1030A00000F043F9C7E723686FF040021A61204639
:1030B000FFF759FFC5E723686FF020021A61204629
:1030C00000F032F9C3E7000003681F4A90420AD0BB
:1030D000B0F1804F07D0A2F59432904203D002F5B0
:1030E0008062904203D123F070034A681343164A6A
:1030F00090420AD0B0F1804F07D0A2F594329042AE
:1031000003D002F58062904203D123F44073CA6871
:10311000134323F080034A69134303608B68C3623F
:103120000B688362084B98420AD00123436103690C
:1031300013F0010F03D0036923F00103036170470B
:103140000B690363F1E700BF002C014040B310B5E9
:10315000044690F83D30F3B1022384F83D30214617
:1031600051F8040BFFF7B0FF012384F8463084F8D0
:103170003E3084F83F3084F8403084F8413084F8A1
:10318000423084F8433084F8443084F8453084F881
:103190003D30002010BD80F83C30FEF7E3FEDBE759
:1031A0000120704710B4846824F47F4C42EA032263
:1031B0000A4342EA0C02826010BC704790F83C302F
:1031C000012B78D010B50446012380F83C3002234F
:1031D00080F83D300268936823F47F4323F077033F
:1031E00093600B68602B4CD023D8402B54D011D85F
:1031F000202B03D00AD80BB1102B05D1194620681B
:10320000FFF757FE002028E0012026E0302BF5D004
:10321000012022E0502B0AD1CA6849680068FFF7F4
:1032200023FE50212068FFF744FE002015E0012016
:1032300013E0B3F5805F3AD0B3F5005F14D0702B84
:1032400037D1CB684A6889680068FFF7ABFF22680E
:10325000936843F0770393600020012384F83D30A6
:10326000002384F83C3010BDCB684A688968006848
:10327000FFF798FF2268936843F48043936000202F
:10328000EBE7CA6849680068FFF700FE6021206824
:10329000FFF70FFE0020E0E7CA6849680068FFF703
:1032A000E3FD40212068FFF704FE0020D5E7002061
:1032B000D3E70120D1E702207047000090F83C20BE
:1032C000012A2CD010B40346012280F83C200222AF
:1032D00080F83D2002685068946820F0700C0868FF
:1032E00040EA0C0050601A680E4882420AD0B2F1DF
:1032F000804F07D0A0F59430824203D000F5806063
:10330000824204D124F08004496821439160012263
:1033100083F83D20002083F83C0010BC7047022059
:10332000704700BF002C014070477047026802F1EF
:103330000C0353E8003F23F490730C3242E8003151
:103340000029F3D1026802F1140353E8003F23F08F
:103350000103143242E800310029F3D1036B012B41
:1033600005D0202380F842300023036370470268B1
:1033700002F10C0353E8003F23F010030C3242E843
:1033800000310029F3D1ECE790F84130DBB2212B7A
:1033900001D0022070478368B3F5805F17D0036ABD
:1033A0005A1C02621A7803685A60C38C9BB2013BB4
:1033B0009BB2C3844BB90268D36823F08003D36007
:1033C0000268D36843F04003D3600020704703696C
:1033D000002BE4D1036A1B880268C3F3080353601F
:1033E000036A02330362E0E710B50446026813691A
:1033F00023F44053C1680B4313618368026913438C
:1034000042691A430168CB6823F4B05323F00C03DC
:103410001343CB600268536923F4407381690B4303
:1034200053610268134B9A4220D0FFF7FDFC02461D
:1034300002EB820202EB820263689B00B2FBF3F2B2
:103440000D48A0FB02314909642303FB11231B0132
:103450003233A0FB03035B0903F0F00202EB01121D
:1034600003F00F03216813448B6010BDFFF7ECFCE1
:103470000246DDE7003801401F85EB512DE9F0439E
:1034800083B005460E4617469946DDF828802B681E
:103490001C6836EA04040CBF01240024BC4228D175
:1034A000B8F1FF3FF3D0FEF76DFEA0EB09004045F9
:1034B00023D8B8F1000F22D02B68DA6812F0040F7D
:1034C000E5D0802EE3D0402EE1D01A6812F0080F2C
:1034D000DDD0002401941A6801925B680193019B7E
:1034E0002846FFF723FF08236B6485F8404001203E
:1034F00000E0002003B0BDE8F0830320FAE70320DA
:10350000F8E760B310B5044690F8413013B32423B4
:1035100084F841302268D36823F40053D3602046F6
:10352000FFF762FF2268136923F490431361226856
:10353000536923F02A0353612268D36843F400538C
:10354000D36000206064202384F8413084F8423046
:10355000606310BD80F84030FEF756FDD7E70120CC
:1035600070472DE9F04182B01E4690F84130DBB241
:10357000202B56D104460D469046002955D00AB955
:1035800001204FE000234364212380F84130FEF7FF
:10359000F9FD0746A4F82480A4F82680A368B3F5B3
:1035A000805F02D04FF0000814E023692BB34FF086
:1035B00000080FE0202384F84130032032E038F87F
:1035C000023B2268C3F308035360E28C92B2013AD3
:1035D00092B2E284E38C9BB293B100963B46002208
:1035E00080212046FFF74AFF0028E3D1002DE6D0D6
:1035F00015F8012B23685A60E7E7A8460025E9E79C
:1036000000963B46002240212046FFF737FF18B9BD
:10361000202384F8413005E0202384F84130032042
:1036200000E0022002B0BDE8F0810120FAE7704717
:1036300008B50168CA6822F04002CA60202280F8FA
:103640004120FFF7F4FF002008BD7047704708B520
:10365000406A0023C385C384FFF7F8FF08BD7047A5
:1036600090F84230DBB2222B69D18368B3F5805FDA
:103670004FD0826AB3F5805F04D0002B56D1036926
:10368000002B53D103685B681370836A0133836234
:10369000C38D9BB2013B9BB2C385002B51D100B5BA
:1036A00083B00268D36823F02003D3600268D36834
:1036B00023F48073D3600268536923F001035361DC
:1036C000202380F8423000234363036B012B33D166
:1036D00000230363026802F10C0353E8003F23F068
:1036E00010030C3242E800310029F3D103681A6854
:1036F00012F0100F06D0002201921A6801925B6846
:103700000193019B818DFFF7AAFF002003B05DF8B4
:1037100004FB0269002AACD1826A03685B68C3F3C8
:1037200008031380836A02338362B1E703685B682E
:1037300003F07F031370A8E7FFF787FFE5E7022098
:10374000704700207047000010B582B00446026840
:103750001368D068516913F00F0F09D113F0200FCF
:103760000CD010F0200F09D02046FFF779FF16E0AB
:1037700011F0010115D110F4907F12D1216B0129B4
:1037800079D013F0800F03D010F0800F40F0138138
:1037900013F0400F03D010F0400F40F0108102B042
:1037A00010BD13F0010F06D010F4807F03D0626CBF
:1037B00042F00102626413F0040F04D019B1626C8C
:1037C00042F00202626413F0020F04D019B1626C7D
:1037D00042F00402626413F0080F07D010F0200FCB
:1037E00000D119B1626C42F008026264626C002A76
:1037F000D5D013F0200F02D010F0200F29D123686C
:103800005B6903F04003626C12F0080F00D163B3F0
:103810002046FFF78BFD23685B6913F0400F20D033
:10382000226802F1140353E8003F23F040031432EE
:1038300042E800310029F3D1E36B73B1624A5A6365
:10384000E06BFEF755FD0028A9D0E06B436B98476D
:10385000A5E72046FFF704FFD1E72046FFF7F6FE75
:103860009DE72046FFF7F2FE99E72046FFF7EEFEC0
:103870000023636493E713F0100F82D010F0100F51
:103880003FF47FAF002301931368019353680193C2
:10389000019B536913F0400F51D0E26B13685B68D2
:1038A0009BB2002B3FF47BAFA18D99427FF677AF9F
:1038B000E3859369202B37D0226802F10C0353E88B
:1038C000003F23F480730C3242E800310029F3D129
:1038D000226802F1140353E8003F23F0010314327D
:1038E00042E800310029F3D1226802F1140353E8C1
:1038F000003F23F04003143242E800310029F3D1A5
:10390000202384F8423000232363226802F10C0351
:1039100053E8003F23F010030C3242E80031002945
:10392000F3D1E06BFEF7C0FC02236363A18DE38D4E
:103930009BB2C91A89B22046FFF791FE2FE7A18DED
:10394000E38D9BB2C91A89B2E38D9BB2002B3FF481
:1039500026AF00293FF423AF226802F10C0353E89D
:10396000003F23F490730C3242E800300028F3D17A
:10397000226802F1140353E8003F23F001031432DC
:1039800042E800300028F3D1202384F8423000239D
:103990002363226802F10C0353E8003F23F0100375
:1039A0000C3242E800300028F3D102236363204642
:1039B000FFF755FEF3E62046FFF7E6FCEFE620466C
:1039C000FFF736FEEBE600BF4F3600082DE9F84F53
:1039D00083468A46904607464FF0000920E0B8FA31
:1039E00088F252092946384600F02AFF7608013548
:1039F000EDB20134E4B2072C08D816F0010FEED076
:103A000042462946384600F01BFFEFE70137FFB278
:103A1000A7EB0B03082B0CD009F101095FFA89F918
:103A2000B9F10F0F0BD8074B13F809605546002466
:103A3000E1E70AF1080A5FFA8AFA5F46ECE7BDE8B7
:103A4000F88F00BF1400002010B582B0012400944C
:103A5000002350221946184600F016FF00942E232A
:103A600000221146104600F00FFF00942E23502232
:103A70000021104600F008FF00942E235022194622
:103A8000002000F001FF052409E0012300932346F4
:103A9000502221464D2000F0F7FE0534E4B2282CD8
:103AA000F3D9012400942E2354221946502000F00B
:103AB000EBFE00940823234A2F21512000F0E2FF5F
:103AC0000094192354221946502000F0DDFE009482
:103AD00008231D4A1B21512000F0D4FF009400232D
:103AE00054221946502000F0CFFE00940823174AB4
:103AF0000221512000F0C6FF009410230022302143
:103B0000104601F037F80094102322463021184661
:103B100001F030F80094102302223021202001F01F
:103B200029F80094102303223021084601F022F8DE
:103B30000094102304223021402001F01BF802B031
:103B400010BD00BF34BF0008DCBE0008E4BE0008A2
:103B500010B582B00124009410231C4A00210846AD
:103B600000F090FF009440231A461021184600F000
:103B70008BFE00941023164A1946002000F082FFA5
:103B800000941023134A2021002000F07BFF0094B2
:103B90001023114A3021002000F074FF00941023FC
:103BA0000E4A1946412000F06DFF009410230C4A84
:103BB0002021412000F066FF00941023094A3021A3
:103BC000412000F05FFF02B010BD00BFECBE000856
:103BD000FCBE000804BF00080CBF000814BF0008AA
:103BE0001CBF000824BF000870B582B001240094F7
:103BF00010231B220021084600F0BCFF0094102374
:103C00001C220021184600F0B5FF364E0194102505
:103C100000950423327800211E2000F061FF0094FB
:103C20002B462D2200213E2000F082FE01940095BB
:103C3000022372780021462000F052FF00942B46A8
:103C40002D220021562000F073FE019400950223DE
:103C5000B27800215E2000F043FF00942B461D2225
:103C60001821002000F086FF00942B461E22182108
:103C7000284600F07FFF019400950223F278182176
:103C8000282000F02DFF00942B463A2218213820DE
:103C900000F04EFE01940095022332791821402055
:103CA00000F01EFF00942B463A221821502000F00D
:103CB0003FFE01940095022372791821582000F0EC
:103CC0000FFF00942B46084A12683021002000F0B4
:103CD000D9FE00942B46054A30216A2000F0D2FE1E
:103CE00002B070BD2C070020280700202CBF000860
:103CF00010B582B00124009410230522002108464B
:103D000000F038FF0094102306220021184600F02E
:103D100031FF0094102307220021202000F02AFF09
:103D2000009410232E220021482000F001FE009470
:103D300010230D220021682000F01CFF00941023A6
:103D400008221946002000F015FF009410230922D4
:103D50001946184600F00EFF009410230A22194657
:103D6000202000F007FF009410230B22194630207A
:103D700000F000FF009410230C2219463D2000F0B3
:103D8000F9FE009410232E221946562000F0D0FD93
:103D9000009410230E2219466C2000F0EBFE0094D4
:103DA00010230F222021002000F0E4FE00941023B5
:103DB0001A462021184600F0DDFE0094102311223F
:103DC0002021084600F0D6FE009410232E22202148
:103DD0004A2000F0ADFD00941023632220216820CA
:103DE00000F0A6FD009410236D222021702000F029
:103DF0009FFD0094102314223021002000F0BAFE11
:103E0000009410231A463021184600F0B3FE0094A7
:103E1000102311223021202000F0ACFE009410234A
:103E20002E2230214A2000F083FD009410236322CB
:103E30003021682000F07CFD009410236D22302199
:103E4000702000F075FD00F0ADFC02B010BD10B5A3
:103E500082B00124009410230F220021084600F0B4
:103E600089FE009410231A460021184600F082FEB5
:103E70000094102311220021202000F07BFE0094EA
:103E800010232E2200214A2000F052FD009410231E
:103E900063220021682000F04BFD009410236D2266
:103EA0000021702000F044FD0094102314221946D4
:103EB000002000F05FFE009410231A4619461846B1
:103EC00000F058FE0094102311221946202000F023
:103ED00051FE009410232E2219464A2000F028FD9E
:103EE0000094102363221946682000F021FD0094FD
:103EF00010236D221946702000F01AFD0094102343
:103F000015222021002000F035FE009410231622F7
:103F10002021184600F02EFE0094102317222021A5
:103F2000084600F027FE009410231822202130209C
:103F300000F020FE009410230C222021402000F0ED
:103F400019FE0094102363222021682000F0F0FC69
:103F5000009410236D222021702000F0E9FC0094D1
:103F6000102319223021002000F004FE00941023B9
:103F70001A223021184600F0FDFD0094102315226E
:103F80003021202000F0F6FD00941023162230216D
:103F9000084600F0EFFD009410230C223021402051
:103FA00000F0E8FD00F0FEFB02B010BD10B582B0DD
:103FB000013806283AD8DFE810F007003B006E0011
:103FC000A100D40007013A0101240094102320220B
:103FD0001946382000F0ACFC009410232022114632
:103FE000382000F0A5FC0094102320223021382036
:103FF00000F09EFC0094102320221946792000F046
:1040000097FC0094102320221146792000F090FCA8
:104010000094102320223021792000F089FC2246D0
:1040200000217820FFF7D2FC00F0BCFB02B010BDED
:1040300001240094102320221146382000F078FC3F
:104040000094102320223021382000F071FC0094CD
:10405000102320221946792000F06AFC00941023D6
:1040600020221146792000F063FC009410232022C6
:104070003021792000F05CFC0094102320220021E4
:10408000782000F055FC224610213820FFF79EFCD6
:1040900000F088FBCAE7012400941023202219466F
:1040A000382000F045FC00941023202230213820D5
:1040B00000F03EFC0094102320221946792000F0E5
:1040C00037FC0094102320221146792000F030FCA8
:1040D0000094102320223021792000F029FC009444
:1040E000102320220021782000F022FC22462021EB
:1040F0003820FFF76BFC00F055FB97E70124009494
:10410000102320221946382000F012FC00941023BE
:1041100020221146382000F00BFC009410232022AE
:104120001946792000F004FC009410232022114647
:10413000792000F0FDFB009410232022302179200B
:1041400000F0F6FB0094102320220021782000F0DC
:10415000EFFB224630213820FFF738FC00F022FB2D
:1041600064E701240094102320221946382000F02F
:10417000DFFB0094102320221146382000F0D8FBEA
:104180000094102320223021382000F0D1FB00942D
:10419000102320221146792000F0CAFB009410233E
:1041A00020223021792000F0C3FB0094102320222C
:1041B0000021782000F0BCFB224610217920FFF777
:1041C00005FC00F0EFFA31E70124009410232022CF
:1041D0001946382000F0ACFB009410232022114631
:1041E000382000F0A5FB0094102320223021382035
:1041F00000F09EFB0094102320221946792000F045
:1042000097FB0094102320223021792000F090FBAE
:104210000094102320220021782000F089FB224600
:1042200020217920FFF7D2FB00F0BCFAFEE6012442
:104230000094102320221946382000F079FB0094C6
:10424000102320221146382000F072FB0094102326
:1042500020223021382000F06BFB00941023202214
:104260001946792000F064FB0094102320221146A7
:10427000792000F05DFB009410232022002178209B
:1042800000F056FB224630217920FFF79FFB00F01B
:1042900089FACBE670B582B01D4D0C2229461D4827
:1042A00001F00EFC012601961024009403232A88B5
:1042B0002146204600F014FC0196009403236A88EE
:1042C0002021204600F00CFC019600940323AA88CC
:1042D0003021204600F004FC019600940323EA8874
:1042E0002146512000F0FCFB0196009403232A890B
:1042F0002021512000F0F4FB0196009403236A89E9
:104300003021512000F0ECFB00F04CFA02B070BDFF
:104310007808002000F800082DE9F04383B04D4FE5
:104320003868FCF7D5FB4C4E86FB0032C0170125E0
:104330000195102400940323C0EBA2120021302029
:1043400000F0CEFB3868FCF7C3FB86FB0023C217E6
:10435000C2EBA3124FF47A7701950094032307FB75
:10436000120200214E2000F0BBFBDFF8F080D8F8ED
:104370000000FCF7ADFBDFF8E89089FB0032C017C6
:10438000019500940223C0EB62122146462000F002
:10439000A7FBD8F80000FCF79BFB89FB0039C2178C
:1043A000C2EB6912019500940223642101FB120201
:1043B00021465C2000F094FBDFF8A880D8F80000CC
:1043C000FCF786FB86FB0032C0170195009403239F
:1043D000C0EBA2122021322000F082FBD8F80000AE
:1043E000FCF776FB86FB0023C217C2EBA3120195F4
:1043F0000094032307FB12022021502000F070FBE1
:10440000DFF86480D8F80000FCF762FB86FB00321E
:10441000C017019500940323C0EBA2123021322073
:1044200000F05EFBD8F80000FCF752FB86FB00367C
:10443000C217C2EBA61201950094032307FB1202D8
:104440003021502000F04CFB00F0ACF903B0BDE887
:10445000F08300BF58070020D34D6210540700209E
:104460001F85EB5148070020440700202DE9F0414B
:1044700082B02C4F3868FCF72BFB2B4D85FB0032AC
:10448000C01701260196102400940323C0EBA2124A
:104490000021322000F024FB3868FCF719FB85FB73
:1044A0000023C217C2EBA3124FF47A77019600944F
:1044B000032307FB12020021502000F011FBDFF85C
:1044C0006C80D8F80000FCF703FB85FB0032C017B6
:1044D000019600940323C0EBA2122146322000F083
:1044E000FFFAD8F80000FCF7F3FA85FB0035C21795
:1044F000C2EBA51201960094032307FB120221468A
:10450000502000F0EDFA019600940323084A126847
:104510002021502000F0E4FA00F044F902B0BDE898
:10452000F08100BF48070020D34D621044070020EF
:104530000000002010B582B00C460130C0B2013836
:1045400006280FD8DFE800F004121D28333E49008A
:10455000012300931023224A1946002000F092FA0A
:104560000023238000F01EF902B010BD0123009348
:1045700010231C4A2021002000F084FA00236380CD
:10458000F0E7012300931023174A3021002000F0A8
:1045900079FA0023A380E5E7012300931023134A4F
:1045A0001946412000F06EFA0023E380DAE7012388
:1045B000009310230E4A2021412000F063FA0023CB
:1045C0002381CFE70123009310230A4A30214120A1
:1045D00000F058FA00236381C4E700238B81C1E710
:1045E00030BF000838BF000840BF000848BF0008BF
:1045F00050BF000858BF000870B506460D464C2451
:104600000BE0315DC1F12D01C4F14D002A46C9B264
:10461000C0B200F015F9013CE4B2002CF1D100F079
:10462000C1F870BD4C2305E0C21812F8012CC25429
:10463000013BDBB2002BF7D170470000F0B587B02B
:10464000144B9A6942F004029A619B6903F00403D7
:104650000193019B022702970125039500230493F0
:10466000032305930C4C02A92046FDF77BFF04268B
:10467000029602A92046FDF775FF2A4639462046D4
:10468000FEF785F82A4631462046FEF780F807B047
:10469000F0BD00BF001002400008014010B50B4CF7
:1046A000012204212046FEF772F801220221204651
:1046B000FEF76DF8002204212046FEF768F800227C
:1046C00002212046FEF763F810BD00BF000801403C
:1046D00010B5084C002204212046FEF758F80122AC
:1046E00002212046FEF753F8012204212046FEF75E
:1046F0004EF810BD0008014010B5084C01220421FD
:104700002046FEF744F8012202212046FEF73FF83A
:10471000002202212046FEF73AF810BD00080140B1
:1047200070B50446002513E0002204210E48FEF770
:104730002EF80D4E012202213046FEF728F8002205
:1047400002213046FEF723F86400E4B20135EDB2F1
:10475000072D08D814F0800FE6D00122042102486A
:10476000FEF715F8E5E770BD0008014038B50446CE
:104770000D46FFF793FF7820FFF7D2FFFFF7BCFF4E
:1047800065B14020FFF7CCFFFFF7B6FF2046FFF7EB
:10479000C7FFFFF7B1FFFFF79BFF38BD0020FFF712
:1047A000BFFFF1E738B5002510E0184B03EBC40359
:1047B000585DFFF7B5FFFFF79FFF0134E4B214F037
:1047C000800FF2D0FFF784FF0135EDB2072D1BD823
:1047D000A5F150000021C0B2FFF7C8FF0021084634
:1047E000FFF7C4FF00211020FFF7C0FFFFF756FFBF
:1047F0007820FFF795FFFFF77FFF4020FFF790FF3E
:10480000FFF77AFF0024DAE738BD00BFD0080020A8
:1048100008B500200BE0094A02EBC3020021115445
:104820000133DBB213F0800FF5D00130C0B207289E
:1048300001D80023F6E7FFF7B5FF08BDD008002038
:104840004FEAD10C01F00701012303FA01F1C9B2CB
:1048500042B10C4B03EBC00313F80C200A4303F8DE
:104860000C207047074A02EBC00212F80C30DB4301
:10487000DBB202F80C300B4302F80C30DB4302F8D9
:104880000C307047D00800202DE9F04F85B0044669
:104890009DF838000190A046A2EB040B8946A3EBDB
:1048A000010ABBF1000F0DDD01220292BAF1000FE7
:1048B00014DD01230393D3451CDD5E4600252F46FE
:1048C0002C461BE0BBF1000F05D0A4EB020B4FF010
:1048D000FF320292EAE7CDF808B0E7E7BAF1000F3D
:1048E00005D0A1EB030A4FF0FF330393E3E7CDF8C4
:1048F0000CA0E0E75646E1E70134A4B2B44213DC71
:10490000019A5FFA89F15FFA88F0FFF799FF5F4437
:104910005544BE4202DABF1B029B9844AE42EBDA1A
:10492000AD1B039B9944E7E705B0BDE8F08F00009D
:104930002DE9F04F85B0039001919DF83870082B58
:1049400016D013F0070118BF012101EBD308590855
:1049500001FB08F85FFA88F8203A5FFA82F9DDF87F
:104960000CB04FF0000ACDF80880C84699464AE0DE
:104970004FF00608F0E708EB48043E4901EB44011C
:1049800011F80A60019D002421E008EB48043A492F
:1049900001EB840111F80A60F4E7384901EB0811D2
:1049A00011F80A60EEE708EBC804354901EB840111
:1049B00011F80A60E6E7B7FA87F252092946584625
:1049C000FFF73EFF76080135EDB20134E4B2072C63
:1049D00008D816F0010FEED03A4629465846FFF7A0
:1049E0002FFFEFE70BF1010B5FFA8BFBB9F1080F1B
:1049F00005D0039BABEB0301B1EB590F30D00AF1AB
:104A000001025FFA82FA029B9A4530D2A9F10801AD
:104A100010292CD801A454F821F000BF77490008D0
:104A20006F4A00086F4A00086F4A00088B49000867
:104A30006F4A00086F4A00086F4A00089B49000847
:104A40006F4A00086F4A00086F4A00086F4A000862
:104A50006F4A00086F4A00086F4A0008A74900081B
:104A6000019B0833DBB20193DDF80CB0C7E705B05A
:104A7000BDE8F08FB8DF000844DB000854D500081B
:104A8000F8C700082DE9F04182B004460F461546EC
:104A90001E469DF8208002E00634E4B201352A78F3
:104AA000A2F12000C0B25E280CD8CDF800803346B9
:104AB00039462046FFF73CFF082EEDD004EB5604A4
:104AC000E4B2EBE702B0BDE8F0810246012002E06B
:104AD00002FB00F019464B1EDBB20029F8D17047EB
:104AE0002DE9F04F83B08246894690461D469DF8D9
:104AF00030609DF834B000273C4619E0700800FB98
:104B000004A0CDF800B0334620224946C0B2FFF7DA
:104B10000FFF0BE03032700800FB04A0CDF800B0AE
:104B20003346D2B24946C0B2FFF702FF0134E4B2C5
:104B3000AC421AD2291BC9B20139C9B20A20FFF707
:104B4000C4FFB8FBF0F00A4AA2FB0032D20802EB25
:104B50008202A0EB4202D2B2002FDBD16B1E9C423C
:104B6000D8DA002ACAD00127D4E703B0BDE8F08F15
:104B7000CDCCCCCC2DE9F04F85B0029001910392C1
:104B80009B469DF8387013F0070818BF4FF00108D6
:104B900008EBD30808FB03F84FF0000A43468046B1
:104BA000D1469A463DE0BBF1400F58D12D49039BB9
:104BB00001EB432111F8096005E02B49039B01EB50
:104BC000431111F80960019D002412E02749039B5D
:104BD00001EBC31111F80960F5E7B7FA87F2520942
:104BE00029464046FFF72CFE76080135EDB2013428
:104BF000E4B2072C08D816F0010FEED03A46294649
:104C00004046FFF71DFEEFE708F101005FFA80F86C
:104C1000029BA8EB0301594518D009F101031FFAC3
:104C200083F9D1451BD2BBF1200FCFD0BBD8BBF14C
:104C3000100FC2D0BBF1180F11D1039B03EBC304BB
:104C40000B4901EBC40111F80960BCE7019B03F1BA
:104C500008085FFA88F30193DDF80880DDE705B006
:104C6000BDE8F08F50C1000818C4000850C3000808
:104C7000D0C3000808B51420FDF78AFAFFF7DEFC60
:104C80000021AE20FFF772FD00210846FFF76EFD00
:104C900000211020FFF76AFD00214020FFF766FD8C
:104CA00000218120FFF762FD0021FF20FFF75EFD5C
:104CB0000021A120FFF75AFD0021C820FFF756FD73
:104CC0000021A620FFF752FD0021A820FFF74EFD8E
:104CD00000213F20FFF74AFD0021D320FFF746FDCA
:104CE00000210846FFF742FD0021D520FFF73EFDD9
:104CF00000218020FFF73AFD0021D920FFF736FD83
:104D00000021F120FFF732FD0021DA20FFF72EFD10
:104D100000211220FFF72AFD0021DB20FFF726FDEE
:104D200000214020FFF722FD00212020FFF71EFD7B
:104D300000210220FFF71AFD00218D20FFF716FD4C
:104D400000211420FFF712FD0021A420FFF70EFD23
:104D50000021A620FFF70AFD0021AF20FFF706FD86
:104D6000FFF756FD08BD00002DE9F04784B04FF075
:104D7000000A574604E0322000F046F90137FFB23E
:104D8000072F3BD800240094019402940394082632
:104D900000964FF00108CDF804804FF00209CDF8DD
:104DA0000C90184D69462846FDF7DCFB224631463B
:104DB0002846FDF7ECFC484600F026F9424631460D
:104DC0002846FDF7E4FC00940194029403940096B5
:104DD000CDF8088069462846FDF7C4FB0C2000F09A
:104DE00013F92AFA08FA31462846FDF7C9FC0028CB
:104DF000C1D06AF07F0A5FFA8AFABCE7504604B075
:104E0000BDE8F0870008014070B584B00546002475
:104E100000940194029403940823009301230193C6
:104E20000223039369461848FDF79CFB13E0164ED6
:104E3000002208213046FDF7AAFC3C2000F0E4F8EF
:104E4000012208213046FDF7A2FC022000F0DCF828
:104E50006D080134E4B2072C14D815F0010FE6D028
:104E6000094E002208213046FDF791FC022000F097
:104E7000CBF8012208213046FDF789FC3C2000F0E8
:104E8000C3F8E5E704B070BD00080140F0B585B097
:104E900000240094019402940394082600960127AC
:104EA000019702230393234D69462846FDF75AFBD9
:104EB000224631462846FDF76AFC40F2EE2000F01B
:104EC000A3F83A4631462846FDF761FC0F2000F072
:104ED0009BF800940194029403940096029769460B
:104EE0002846FDF73FFB08211248FDF749FC38B181
:104EF000C72C05D80134E4B2012000F085F8F2E7B0
:104F0000C72C12D8002404E00134E4B2012000F0E0
:104F10007BF808210748FDF733FC08B9EF2CF3D9DB
:104F2000EF2C04D8002005B0F0BD0120FBE70120E4
:104F3000F9E700BF0008014000B587B0134B9A693C
:104F400042F008029A619A6902F008020092009AFF
:104F50009A6942F004029A619B6903F00403019389
:104F6000019B002302930393049305930823029368
:104F7000012303930223059302A90548FDF7F2FAE2
:104F8000FFF784FF07B05DF804FB00BF001002408C
:104F90000008014008B5FFF779FFCC20FFF734FF88
:104FA0004420FFF731FF08BD10B5FFF7F3FFFFF70F
:104FB0006DFFCC20FFF728FFBE20FFF725FFFFF78E
:104FC000D3FE0446FFF7D0FE024603029BB2234401
:104FD00098B212F0800F08D1FBF7ECF90022084BD1
:104FE000FBF732FEFBF750FA10BD404280B2FBF7F0
:104FF000E1F90022034BFBF727FEFBF745FAF3E745
:105000000000B03F0000B0BF82B0019010E04FF44C
:10501000617014E001F58C3101F5A0714FF0E023CF
:105020009B699A42FADA9942F8DB019B1B1A0193B9
:10503000019BABB1019BB3F5617FE8D801984FF0BC
:10504000E0239A696FF0470101FB00210029E1DBB1
:105050004FF0E0239B699A42E7DD9942F8DDE4E7EF
:1050600002B07047F0B587B0254B9A6942F008024C
:105070009A619A6902F008020092009A9A6942F4D1
:1050800000629A619B6903F400630193019B002411
:1050900002940394049405944FF4806702970126C8
:1050A000039603230593174D02A92846FDF75AFAE4
:1050B000224639462846FDF76AFB4FF40063029307
:1050C0000394049602A92846FDF74CFA0E4D0F4BA7
:1050D0002B6047236B60AC6040F2E733EB602C61E0
:1050E0006C61AC612846FEF731F82B685C626FF0AA
:1050F00001021A612846FDF7E5FE07B0F0BD00BFCA
:1051000000100240000C0140C4070020002C0140A8
:1051100008B50448026800235362034A1370FDF780
:10512000D1FE08BDC4070020540D002010B5084B67
:105130001A78084B1B685C6A4FF47A7101FB0244D1
:1051400000225A620A20FDF723F8204610BD00BF56
:10515000540D0020C407002008B50248FDF7E6FE04
:1051600008BD00BFC40700202DE9F8430025002436
:10517000012D04D1384B5C602046BDE8F883374EE2
:1051800001224FF480613046FDF701FB0F20FFF74D
:105190003BFF00224FF480613046FDF7F8FA4FF4F0
:1051A00000612E48FDF7ECFA0028F8D0FFF7B0FFB9
:1051B00001354FF400612948FDF7E2FA0128F8D0E3
:1051C000FFF7CAFFFFF7B2FFFBF764FA0646244970
:1051D000FBF76CFB204F3860224B1868FBF7FCF89C
:1051E00017A3D3E90023FBF72FFD17A3D3E900236F
:1051F000FAF794FF804689461B4B1868FBF7ECF8DA
:1052000013A3D3E90023FBF71FFD02460B464046DC
:105210004946FAF783FFFBF737F9144B186031461C
:10522000FBF790FA1249FBF78DFA1249FBF73EFBA8
:10523000014678602046FBF77DF9044698E700BFF9
:105240003108AC1C5A64E33F3333333333B7744013
:105250001361C3D32B65893F4C070020000C01402C
:10526000000068426407002060070020500D002005
:105270000000C8420024F4492DE9F04188B0002420
:1052800007E0FFF771FF08AB03EB840343F81C0C46
:105290000134062CF5D94FF0000821E02C46C8F166
:1052A0000603A3421AD908AB03EB840353F81C6C22
:1052B000651C08AB03EB850353F81C7C394630466C
:1052C000FBF7FCFB0028E9D008AB03EB840444F8AF
:1052D0001C7C03EB850343F81C6CDFE708F1010835
:1052E000B8F1050F01D80024D9E70124002007E018
:1052F00008AB03EB840353F81C1CFBF71BF90134C8
:10530000052CF5D90249FBF7D1FA08B0BDE8F081C8
:105310000000A04010B5FFF7AFFF04464FF08041FA
:10532000FBF7CCFBD8B15F492046FBF7B3FB002865
:1053300040F0A1805B492046FBF7C0FB002800F04D
:105340009C8059492046FBF7A5FB40B155492046B2
:10535000FBF7EEF85549FBF7F5F9014690E05249A5
:105360002046FBF7ABFB002800F08980504920461F
:10537000FBF790FB40B14B492046FBF7D9F84D496C
:10538000FBF7E0F901467BE049492046FBF796FB35
:10539000002879D048492046FBF77CFB40B14149C1
:1053A0002046FBF7C5F84549FBF7CCF9014667E015
:1053B00041492046FBF782FB002867D04049204640
:1053C000FBF768FB40B137492046FBF7B1F83D4990
:1053D000FBF7B8F9014653E039492046FBF76EFB6D
:1053E000002855D038492046FBF754FB40B12D49E1
:1053F0002046FBF79DF83549FBF7A4F901463FE04D
:1054000031492046FBF75AFB002843D0304920465B
:10541000FBF740FB40B123492046FBF789F82D49B3
:10542000FBF790F901462BE029492046FBF746FBA4
:10543000002831D028492046FBF72CFB40B1194900
:105440002046FBF775F82549FBF77CF9014617E084
:1054500021492046FBF732FB00B321492046FBF7E8
:1054600019FBE8B10F492046FBF762F81B49FBF72F
:1054700069F9014604E01B4902E0002100E0002137
:105480002046FBF755F810BD0021F9E70021F7E7AA
:105490000021F5E70021F3E70021F1E70021EFE724
:1054A0000021EDE7000030410000F041BC74133DE5
:1054B00000007042295C0F3D0000C84296430B3D3E
:1054C00000004843022B073D000096436F12033D46
:1054D0000000C843B6F3FD3C0000FA438FC2F53C20
:1054E00000001644CDCC4C3D70B50446002513E0B9
:1054F0000B4E002280213046FDF749F904F080026E
:1055000002210848FDF743F96400E4B2012280213A
:105510003046FDF73CF90135072DE9DD70BD00BFD0
:1055200000080140000C014070B505460C46094ECC
:10553000002201213046FDF72AF92846FFF7D4FF63
:105540002046FFF7D1FF012211463046FDF71FF933
:1055500070BD00BF000C014008B512B9FFF7E4FFB1
:1055600008BD41F08001FFF7DFFFF9E710B5012426
:1055700005E000220F21E0B2FFF7EEFF0134082C16
:10558000F7DD10BD2DE9F04186B080460F46154687
:10559000234B9A6942F008029A619A6902F0080264
:1055A0000092009A9A6942F004029A619B6903F0A2
:1055B00004030193019B0024029403940494059432
:1055C0000323029301260396059302A91548FCF7CD
:1055D000C9FF8023029302A91348FCF7C3FF314699
:1055E0000C20FFF7A1FF41460920FFF79DFF394638
:1055F0000A20FFF799FF691EC9B20B20FFF794FF3D
:1056000031460F20FFF790FF6420FCF7C1FD2146D3
:105610000F20FFF789FFFFF7A9FF06B0BDE8F08173
:1056200000100240000C01400008014070B586B037
:105630000023029303930493059303F1804303F53E
:1056400004339A6942F008029A619B6903F00803E7
:105650000193019B4FF440750295012603960323A5
:105660000593064C02A92046FCF77CFF32462946EA
:105670002046FDF78CF806B070BD00BF000C01405D
:1056800070B584B0002400940194029403944FF404
:10569000007600961123019303230393154D694669
:1056A0002846FCF75FFF22464FF480712846FDF73D
:1056B0006EF8012231462846FDF769F801224FF4C1
:1056C00080712846FDF763F80520FFF79DFC224610
:1056D00031462846FDF75BF80520FFF795FC22468A
:1056E0004FF480712846FDF752F80520FFF78CFC37
:1056F00004B070BD000C014070B584B0002400946B
:105700000194029403944FF40076009611230193C0
:1057100003230393114D69462846FCF723FF2246D5
:105720004FF480712846FDF732F82246314628466C
:10573000FDF72DF801224FF480712846FDF727F878
:105740000520FFF761FC012231462846FDF71FF8CE
:105750000520FFF759FC04B070BD00BF000C0140EC
:10576000F0B585B00546002400940194029403949A
:105770004FF40077009711230193032303931C4EEA
:1057800069463046FCF7EEFE22464FF48071304603
:10579000FCF7FDFF224639463046FCF7F8FF0520AE
:1057A000FFF732FCE5B9224639463046FCF7EFFFF9
:1057B0000F4C01224FF480712046FCF7E8FF0520D2
:1057C000FFF722FC00224FF480712046FCF7DFFF38
:1057D00001224FF400712046FCF7D9FF05B0F0BD5F
:1057E00001224FF400710248FCF7D1FFE0E700BF4F
:1057F000000C014070B584B0002300930193029324
:1058000003934FF40076009601250295224C6946D9
:105810002046FCF7A7FE2A4631462046FCF7B7FF94
:105820000520FFF7F1FB2A464FF480712046FCF774
:10583000AEFF0520FFF7E8FB0A2404E0013CE4B2D8
:105840000520FFF7E1FB4FF400711348FCF798FFC8
:10585000012801D1002CF1D1CCB10F4D00224FF421
:1058600080712846FCF793FF002400940194029471
:1058700003944FF4007300931123019303230393C4
:1058800069462846FCF76EFE204604B070BDFFF75F
:1058900033FF0120F9E700BF000C014070B584B070
:1058A0000446002500950195029503954FF4007379
:1058B00000931123019303230393194E6946304645
:1058C000FCF750FE2A464FF480713046FCF75FFF2C
:1058D00021E0134EE2094FF400713046FCF757FF08
:1058E0000220FFF791FB6400E4B20620FFF78CFB77
:1058F00001224FF480713046FCF749FF0420FFF786
:1059000083FB00224FF480713046FCF740FF0420F7
:10591000FFF77AFB0135072DDBDD04B070BD00BF5A
:10592000000C014070B584B00024009401940294EE
:1059300003944FF4007300930123029369461748C0
:10594000FCF710FE254604E00520FFF75DFB01345F
:10595000E4B2072C1ED8114E00224FF4807130465D
:10596000FCF715FF0520FFF74FFB01224FF4807174
:105970003046FCF70CFF0520FFF746FB6D00EDB24B
:105980004FF400713046FCF7FBFE0028DCD045F0F8
:105990000105D9E7284604B070BD00BF000C0140E6
:1059A00070B50446FFF76CFE8020FFF777FFFFF726
:1059B00021FF012829D02046FFF770FFFFF71AFFCB
:1059C000012826D00A20FFF71FFBFFF759FE812090
:1059D000FFF764FFFFF70EFF0128F3D01420FFF755
:1059E00013FBFFF79FFF06460020FFF7B9FEFFF706
:1059F00099FF05460120FFF7B3FEFFF77DFEF32C6C
:105A00000BD00020F52C1DD070BD1D4800F082FA8F
:105A1000D1E71C4800F07EFAD4E745EA0620FAF701
:105A2000C9FC0022184BFBF70FF911A3D3E900239F
:105A3000FBF70AF910A3D3E90023FAF76DFBFAF795
:105A400023FDDFE745EA0620FAF7B4FC00220E4BFF
:105A5000FBF7FAF800220D4BFBF7F6F800220C4B8F
:105A6000FAF75AFBFAF710FDCEE700BFAFF300805C
:105A7000D7A3703D0AF76540CDCCCCCCCC6C474069
:105A800060BF00086CBF00080000F03E00405F40AF
:105A900000001840008880B27047F8B505460F46F0
:105AA0001646002409E037F8142000232946012077
:105AB000FCF708FD02350134A4B2B442F3D3F8BDBB
:105AC000F8B505460F461646002407E02846FFF7BE
:105AD000E1FF27F8140002350134A4B2B442F5D333
